:020000040000FA
:060000008AEFCDF01200B2
:020006000000F8
:0600080064EF84F0120019
:02000E00C250DE
:08001000020B01E0010E1200D9
:0600180097EFABF01200AF
:02001E000300DD
:10002000169C0100210E00001E000000E79B01004D
:10003000D10000002F000000C69B0100000E000050
:04004000210000009B
:0C004400D9CFE6FFDACFE6FFE1CFD9FF0D
:10005000E2CFDAFFE652E6526BECC0F00E012E6BF7
:100060000E01256B0E0121692269236924690E01A5
:10007000286929692A692B69EAEC96F0B10EE66EC7
:10008000030EE66E1BEC07F0E552E552000901E0B5
:100090009BD030CEE9FF31CEEAFFB10EEE6E030EFB
:1000A000ED6E30CEE9FF31CEEAFF0A0EEB6A0B0EA1
:1000B000EB6A30CEE9FF31CEEAFF0C0EEB6A0D0E93
:1000C000EB6A30CEE9FF31CEEAFF0E0EE926000ED4
:1000D000EA22EE6AEE6AEE6AEE6A30CEE9FF31CECF
:1000E000EAFF120EE926000EEA22EE6AEE6AEE6AD6
:1000F000EE6A30CEE9FF31CEEAFF1B0EE926000E94
:10010000EA225C0EEF6E010EDE6EDD6ADECF48F095
:10011000DDCF49F0D890495004E60B0E485C000E44
:10012000495819E230CEE9FF31CEEAFF1B0EE9262D
:10013000000EEA22E9CF48F0EACF49F0DE50482429
:10014000E96EDD504920EA6E200EEF6EDF2A010EC7
:1001500001E3DB2ADBD730CEE9FF31CEEAFF260E02
:10016000EB6A270EEB6A30CEE9FF31CEEAFF2A0EAA
:10017000E926000EEA22100EEE6EED6A30CEE9FF9F
:1001800031CEEAFF2C0EE926000EEA220BC3EEFF69
:100190000CC3EEFF0DC3EEFF0EC3EEFF30CEE9FF42
:1001A00031CEEAFF300EE926000EEA220BC3EEFF45
:1001B0000CC3EEFF0DC3EEFF0EC3EEFF03010F6B8A
:1001C000010EF36EF46A03D0F36AF46A00D0E552CC
:1001D000E552E552E5CFDAFFE7CFD9FF1200D9CFDC
:1001E000E6FFDACFE6FFE1CFD9FFE2CFDAFF0B0E71
:1001F000E12402E3E168E652E16EFC0EDBCFE9FFA9
:10020000FD0EDBCFEAFF260EE926000EEA22040EE1
:10021000EECFDBFF050EEDCFDBFF0B0EF36E060E10
:10022000F3CFDBFFFC0EDBCFE9FFFD0EDBCFEAFFF8
:100230002C0EE926000EEA22EECF48F0EECF49F070
:10024000EECF4AF0EFCF4BF0FC0EDBCFE9FFFD0E17
:10025000DBCFEAFF300EE926000EEA2248C0EEFFAF
:1002600049C0EEFF4AC0EEFF4BC0EEFFFA0EDBCFF7
:10027000E9FFFB0EDBCFEAFF2A0EE926000EEA2299
:10028000EECF48F0EFCF49F0FF0E481AFF0E491AA3
:10029000020E48C0DBFF030E49C0DBFFD950040F3C
:1002A000E96E000EDA20EA6EEE50ED1025E1010E47
:1002B000E66ED950040FE66E000EDA20E66EFC0EF4
:1002C000DBCFE6FFFD0EDBCFE6FFDBEC12F04A6E84
:1002D000050EE15C02E2E16AE552E16E4A50F3CFBD
:1002E00048F0F4CF49F04850491005E11B0EF36E79
:1002F000060EF3CFDBFF28D0040EDB500F0B24E0FB
:10030000010EE66ED950040FE66E000EDA20E66E9E
:10031000FC0EDBCFE6FFFD0EDBCFE6FFDBEC12F0E1
:100320004A6E050EE15C02E2E16AE552E16E4A5076
:10033000F3CF48F0F4CF49F04850491005E11B0EC7
:10034000F36E060EF3CFDBFF060EDB501B0801E158
:10035000FBD1060EDB501CE0D950040FE66E000EF8
:10036000DA20E66EFC0EDBCFE6FFFD0EDBCFE6FF0C
:100370004DEC20F0E552E552E552E552E76E090EEC
:10038000E7CFDBFF090EDB50020801E1DDD101D030
:10039000DBD1090EDB5001E0CCD1FC0EDBCFE9FF55
:1003A000FD0EDBCFEAFF2A0EE926000EEA22EECF91
:1003B000DEFFEDCFDDFF3F0EDE16DD6AF80EDB500F
:1003C000010A01E181D0010A01E0B2D1D9CFE9FFF0
:1003D000DACFEAFF080EEE1801E1ED5074E0060EE8
:1003E000DB6A6D0EF36E070EF3CFDBFF0A0EDB6ADE
:1003F0000B0EF36E0A0EDBCFF4FFF350F45C63E2F6
:10040000FC0EDBCFE9FFFD0EDBCFEAFF1B0EE9267A
:10041000000EEA22E9CF48F0EACF49F00A0EDB509D
:100420000F014824E96E000E4920EA6E070EEFCF57
:10043000DBFFFA0EDBCFE9FFFB0EDBCFEAFF1B0E83
:10044000E926000EEA22E9CF48F0EACF49F00A0E89
:10045000DB500F014824E96E000E4920EA6E080EB9
:10046000EFCFDBFF070EDBCFE6FFE66A2DECCBF02C
:10047000E552E552F3CF48F0F4CF49F048C0E6FF2B
:1004800049C0E6FF080EDBCFE6FFE66A2DECCBF0B5
:10049000E552E552E552E7CF49F0E552E7CF48F0A3
:1004A000F3CF4AF0F4CF4BF04A50481802E14B50DA
:1004B000491806E00B0EF36E060EF3CFDBFF03D0F8
:1004C0000A0EDB2A95D734D1020EDBCF4AF0030E99
:1004D000DBCF4BF0DE504A14486EDD504B14496EB2
:1004E0004850491001E023D1D9CFE9FFDACFEAFF24
:1004F0000F0EEE1801E1ED5001E119D1060EDB6A95
:100500006D0EF36E070EF3CFDBFFFA0EDBCFE9FFC4
:10051000FB0EDBCFEAFF1B0EE926000EEA22EF50AE
:100520002A0876E00A0EDB6A080EF36E0A0EDBCFAD
:10053000F4FFF350F45C6CE2FC0EDBCFE9FFFD0E40
:10054000DBCFEAFF1B0EE926000EEA22E9CF48F0D6
:10055000EACF49F00A0EDB500F014824E96E000E85
:100560004920EA6E070EEFCFDBFFFA0EDBCFE9FF83
:10057000FB0EDBCFEAFF1B0EE926000EEA22E9CFD5
:1005800048F0EACF49F00A0EDB500F014824E96E2B
:10059000000E4920EA6E080EEFCFDBFF080EDB509D
:1005A0002A0801E135D0080EDB503F082EE0070E87
:1005B000DBCFE6FFE66A2DECCBF0E552E552F3CF58
:1005C00048F0F4CF49F048C0E6FF49C0E6FF080E06
:1005D000DBCFE6FFE66A2DECCBF0E552E552E552C3
:1005E000E7CF49F0E552E7CF48F0F3CF4AF0F4CF38
:1005F0004BF04A50481802E14B50491806E00B0EE8
:10060000F36E060EF3CFDBFF03D00A0EDB2A8CD786
:10061000FA0EDBCFE9FFFB0EDBCFEAFF1B0EE9266C
:10062000000EEA22080EE926000EEA22EF502A0800
:1006300001E17DD0060EDB5001E079D0080EF36EAB
:100640000A0EF3CFDBFF0B0EF36E0A0EDBCFF4FFC7
:10065000F350F45C6CE2FC0EDBCFE9FFFD0EDBCF68
:10066000EAFF1B0EE926000EEA22E9CF48F0EACFA6
:1006700049F00A0EDB500F014824E96E000E4920B4
:10068000EA6E070EEFCFDBFFFA0EDBCFE9FFFB0EC2
:10069000DBCFEAFF1B0EE926000EEA22E9CF48F085
:1006A000EACF49F00A0EDB500F014824E96E000E34
:1006B0004920EA6E080EEFCFDBFF080EDB502A0858
:1006C00001E135D0080EDB503F082EE0070EDBCFEE
:1006D000E6FFE66A2DECCBF0E552E552F3CF48F0A9
:1006E000F4CF49F048C0E6FF49C0E6FF080EDBCF73
:1006F000E6FFE66A2DECCBF0E552E552E552E7CF96
:1007000049F0E552E7CF48F0F3CF4AF0F4CF4BF091
:100710004A50481802E14B50491806E00B0EF36EA0
:10072000060EF3CFDBFF03D00A0EDB2A8CD700D0F6
:1007300005D0F90EDB5002E1060EDB6A040EDB2A5F
:10074000050E01E3DB2A05D6060EDB5000D0486E0D
:100750000B0EE15C02E2E16AE552E16E4850E552BF
:10076000E5CFDAFFE7CFD9FF1200D9CFE6FFDACF26
:10077000E6FFE1CFD9FFE2CFDAFF080EE12402E382
:10078000E168E652E16E070EDB6AFC0EDBCFE9FFA3
:10079000FD0EDBCFEAFFEECFDEFFEDCFDDFFDECFDC
:1007A000E9FFDDCFEAFF230EE926000EEA22EF5033
:1007B00006E1070EF36E070EF3CFDBFFB8D1FC0E98
:1007C000DBCFE9FFFD0EDBCFEAFF2C0EE926000EA2
:1007D000EA22EECF48F0EECF49F0EECF4AF0EFCF6D
:1007E0004BF0FC0EDBCFE9FFFD0EDBCFEAFF300E56
:1007F000E926000EEA2248C0EEFF49C0EEFF4AC0DB
:10080000EEFF4BC0EEFFFA0EDBCFE9FFFB0EDBCFB6
:10081000EAFFEE50ED1025E1010EE66EFA0EDBCF99
:10082000E6FFFB0EDBCFE6FFFC0EDBCFE6FFFD0EA7
:10083000DBCFE6FFDBEC12F04A6E050EE15C02E274
:10084000E16AE552E16E4A50F3CF48F0F4CF49F047
:100850004850491005E11B0EF36E070EF3CFDBFF86
:1008600031D0FA0EDBCFE9FFFB0EDBCFEAFFEECF94
:100870003CF0EDCF3DF03C500F0B24E0010EE66E56
:10088000FA0EDBCFE6FFFB0EDBCFE6FFFC0EDBCF85
:10089000E6FFFD0EDBCFE6FFDBEC12F04A6E050E45
:1008A000E15C02E2E16AE552E16E4A50F3CF48F0C2
:1008B000F4CF49F04850491005E11B0EF36E070EC6
:1008C000F3CFDBFFFA0EDBCFE6FFFB0EDBCFE6FF5D
:1008D000FC0EDBCFE6FFFD0EDBCFE6FF4DEC20F09C
:1008E000E552E552E552E552E76E020EE7CFDBFF37
:1008F000020EDB5006E00B0EF36E070EF3CFDBFFAC
:1009000016D1FC0EDBCFE9FFFD0EDBCFEAFF0E0EAA
:10091000E926000EEA22EE6AEE6AEE6AEE6AFC0E44
:10092000DBCFE9FFFD0EDBCFEAFF020EE926000E6A
:10093000EA22EECF48F0EECF49F0EECF4AF0EFCF0B
:100940004BF0FC0EDBCFE9FFFD0EDBCFEAFF060E1E
:10095000E926000EEA2248C0EEFF49C0EEFF4AC079
:10096000EEFF4BC0EEFFFC0EDBCFE9FFFD0EDBCF51
:10097000EAFF0A0EEB6A0B0EEB6AFC0EDBCFE9FF17
:10098000FD0EDBCFEAFF0C0EEB6A0D0EEB6A020EDA
:10099000DB0406E10B0EF36E070EF3CFDBFF87D00F
:1009A000FC0EDBCFE9FFFD0EDBCFEAFF060EE926EA
:1009B000000EEA22EECFE6FFEECFE6FFEECFE6FF37
:1009C000EFCFE6FFDECFE6FFDDCFE6FFC7EC2EF090
:1009D000486E060EE15C02E2E16AE552E16E4850C3
:1009E000030E3AC0DBFF040E3BC0DBFF050E3CC02C
:1009F000DBFF060E3DC0DBFF0E012C5106E0D0EC04
:100A000034F0000902E0090E95D0FC0EDBCF26FE83
:100A1000FD0EDBCF27FED950030FE96E000EDA2062
:100A2000EA6E0E012851EE180CE10E012951EE1864
:100A300008E10E012A51EE1804E10E012B51EE18C7
:100A400000E135E00E012E6BDECFE9FFDDCFEAFFDE
:100A5000EECFE6FFEFCFE6FFD950030FE96E000EB1
:100A6000DA20EA6EEECFE6FFEECFE6FFEECFE6FF4E
:100A7000EFCFE6FF98EC9AF0486E060EE15C02E2DA
:100A8000E16AE552E16E4850000905E1080EF36E97
:100A9000070EF3CFDBFF030EDBCF28FE040EDBCF08
:100AA00029FE050EDBCF2AFE060EDBCF2BFEFC0E49
:100AB000DBCFE9FFFD0EDBCFEAFF160EE926000EC5
:100AC000EA22EF94F90EDB50770804E0F90EDB50D0
:100AD000610817E1FC0EDBCFE9FFFD0EDBCFEAFF7B
:100AE000160EE926000EEA22EF80FC0EDBCFE9FFAE
:100AF000FD0EDBCFEAFF160EE926000EEA22EF928A
:100B000016D0FC0EDBCFE9FFFD0EDBCFEAFF160EA1
:100B1000E926000EEA22EF90FC0EDBCFE9FFFD0E86
:100B2000DBCFEAFF160EE926000EEA22EF82070E5F
:100B3000DB5000D0486E080EE15C02E2E16AE5524B
:100B4000E16E4850E552E5CFDAFFE7CFD9FF12005A
:100B5000D9CFE6FFDACFE6FFE1CFD9FFE2CFDAFF68
:100B6000130EE12402E3E168E652E16E100EDB6A47
:100B7000FC0EDBCFE9FFFD0EDBCFEAFF110EEECF5F
:100B8000DBFF120EEDCFDBFF110EDBCFE9FF120E04
:100B9000DBCFEAFF220EE926000EEA22EF50020A1E
:100BA00036E0030A1DE0020A01E031D0F80EF36ED0
:100BB0000C0EF3CFDBFF0D0EDB680E0EDB680F0EA5
:100BC000F36E0F0EF3CFDBFF080EDB68090EDB6858
:100BD0000A0EDB680F0EF36E0B0EF3CFDBFF2BD08C
:100BE000F80EF36E0C0EF3CFDBFF0F0EF36E0D0E4F
:100BF000F3CFDBFF0E0EDB6A0F0EDB6A080EDB683D
:100C0000090EDB680A0EDB6A0B0EDB6A14D0F80EE5
:100C1000F36E0C0EF3CFDBFF0D0EDB680E0EDB6AFE
:100C20000F0EDB6A080EDB68090EDB680A0EDB6A52
:100C30000B0EDB6A00D0FC0EDBCFE9FFFD0EDBCF35
:100C4000EAFF060EE926000EEA22040EEECFDBFFD5
:100C5000050EEECFDBFF060EEECFDBFF070EEECF6D
:100C6000DBFF080EDBCF49F0090EDBCF4AF00A0E9E
:100C7000DBCF4BF00B0EDBCF4CF049C0E6FF4AC098
:100C8000E6FF4BC0E6FF4CC0E6FFD950040FE96E0B
:100C9000000EDA20EA6EEECFE6FFEECFE6FFEECFF3
:100CA000E6FFEFCFE6FF110EDBCFE6FF120EDBCF44
:100CB000E6FF57EC44F0486E060EE15C02E2E16AA2
:100CC000E552E16E4850E552E7CF4CF0E552E7CFF0
:100CD0004BF0E552E7CF4AF0E552E7CF49F03AC092
:100CE000DFFF010E3BC0DBFF020E3CC0DBFF030E4B
:100CF0003DC0DBFF3A50491809E13B504A1806E174
:100D00003C504B1803E13D504C1800E106E1080E41
:100D1000F36E100EF3CFDBFF47D0020E486E496A28
:100D20004A6A4B6A110EDBCFE9FF120EDBCFEAFFF6
:100D3000140EE926000EEA22EE504826EE50492213
:100D4000EE504A22EE504B22D9CFE9FFDACFEAFF2C
:100D50004850EE5C4950EE584A50EE584B50EE5811
:100D600005E30A0EF36E100EF3CFDBFF0C0EDBCFA4
:100D700048F00D0EDBCF49F00E0EDBCF4AF00F0E20
:100D8000DBCF4BF0D9CFE9FFDACFEAFF4850EE5C7A
:100D90004950EE584A50EE584B50EE5805E33C0E81
:100DA000F36E100EF3CFDBFFFC0EDBCFE9FFFD0E81
:100DB000DBCFEAFF060EE926000EEA22DFCFEEFFC8
:100DC000010EDBCFEEFF020EDBCFEEFF030EDBCF1B
:100DD000EEFFD950F80FE96EFF0EDA20EA6EEF064B
:100DE000EECF48F0000EEF5AEECF49F0EF5AEECFBB
:100DF0004AF0EF5AEFCF4BF0D880000E4854000E67
:100E00004954000E4A54000E4B5404E2100EDB50BD
:100E100001E111D7100EDB5000D0486E130EE15CDB
:100E200002E2E16AE552E16E4850E552E5CFDAFFB1
:100E3000E7CFD9FF1200D9CFE6FFDACFE6FFE1CF47
:100E4000D9FFE2CFDAFFE652E652E652DF6AFC0E45
:100E5000DBCFE9FFFD0EDBCFEAFF230EE926000E14
:100E6000EA22EF6AFC0EDBCFE9FFFD0EDBCFEAFFE3
:100E7000000EEE6E070EED6E62ECA1F0DE52F3CFC7
:100E8000DEFFF4CFDDFFDD52010EDBCFE9FF020E06
:100E9000DBCFEAFFEF5006E0060EDF6E0301060E21
:100EA0000F6F67D0010EDBCFE9FF020EDBCFEAFF49
:100EB000EE52EF50010B39E0010EDBCFE9FF020EDD
:100EC000DBCFEAFF020EE926000EEA22EECF48F061
:100ED000EFCF49F04A6A4B6AFC0EDBCFE9FFFD0E0B
:100EE000DBCFEAFF180EE926000EEA2248C0EEFF2B
:100EF00049C0EEFF4AC0EEFF4BC0EEFF010EDBCF54
:100F0000E9FF020EDBCFEAFF020EE926000EEA221D
:100F1000000ED880EE54020EED5407E2210EDF6E73
:100F20000301210E0F6FDF5026D0FC0EDBCFE6FF52
:100F3000FD0EDBCFE6FF28D8E552E552DF6EDF502D
:100F400018E1FC0EDBCFE6FFFD0EDBCFE6FF21DA7A
:100F5000E552E552DF6EDF500CE1FC0EDBCFE9FF1E
:100F6000FD0EDBCFEAFF230EE926000EEA22010E7A
:100F7000EF6EDF5000D0E552E552E552E552E5CF85
:100F8000DAFFE7CFD9FF1200D9CFE6FFDACFE6FFCD
:100F9000E1CFD9FFE2CFDAFF090EE12402E3E168F5
:100FA000E652E16E020EDB6AFC0EDBCFE9FFFD0EBE
:100FB000DBCFEAFFEECFE6FFEFCFE6FFE66AE66AB9
:100FC000E66AE66A98EC9AF0486E060EE15C02E288
:100FD000E16AE552E16E4850010809E0080EF36E3F
:100FE000020EF3CFDBFF0301080E0F6FC1D1FC0E21
:100FF000DBCFE9FFFD0EDBCFEAFF040EEECFDBFF18
:10100000050EEDCFDBFF040EDBCFE9FF050EDBCFD6
:10101000EAFFFE0EE926010EEA22EF50550801E034
:10102000E1D0040EDBCFE9FF050EDBCFEAFFFF0EB8
:10103000E926010EEA22EF50AA0801E0D3D0040EFF
:10104000DBCFE9FF050EDBCFEAFF360EE926000E07
:10105000EA22EF5046085DE1040EDBCFE9FF050E02
:10106000DBCFEAFF360EE926000EEA22010EE92662
:10107000000EEA22EF5041084CE1040EDBCFE9FFFD
:10108000050EDBCFEAFF360EE926000EEA22020E3D
:10109000E926000EEA22EF5054083BE1040EDBCFB4
:1010A000E9FF050EDBCFEAFF360EE926000EEA2245
:1010B000030EE926000EEA22EF5031082AE1040E61
:1010C000DBCFE9FF050EDBCFEAFF260EE926000E97
:1010D000EA22EF5029081DE1FC0EDBCFE9FFFD0EEF
:1010E000DBCFEAFF020EE926000EEA22EE6AEE6A84
:1010F000EE6AEE6AFC0EDBCFE9FFFD0EDBCFEAFF06
:10110000220EE926000EEA22020EEF6E000E33D107
:1011100069D0040EDBCFE9FF050EDBCFEAFF520EEC
:10112000E926000EEA22EF5046085CE1040EDBCF10
:10113000E9FF050EDBCFEAFF520EE926000EEA2298
:10114000010EE926000EEA22EF5041084BE1040EA1
:10115000DBCFE9FF050EDBCFEAFF520EE926000EDA
:10116000EA22020EE926000EEA22EF5054083AE184
:10117000040EDBCFE9FF050EDBCFEAFF520EE926B6
:10118000000EEA22030EE926000EEA22EF50330891
:1011900029E1040EDBCFE9FF050EDBCFEAFF420EAB
:1011A000E926000EEA22EF5029081CE1FC0EDBCFF5
:1011B000E9FFFD0EDBCFEAFF020EE926000EEA2270
:1011C000EE6AEE6AEE6AEE6AFC0EDBCFE9FFFD0E18
:1011D000DBCFEAFF220EE926000EEA22030EEF6EB5
:1011E000000EC9D0FC0EDBCFE9FFFD0EDBCFEAFF1E
:1011F000EECFDEFFEDCFDDFFDECFE9FFDDCFEAFF93
:10120000FE0EE926010EEA22EF5055080BE1DECF73
:10121000E9FFDDCFEAFFFF0EE926010EEA22EF50DB
:10122000AA0809E00301040E0F6F040EF36E020E0C
:10123000F3CFDBFF9DD0DECFE9FFDDCFEAFFBE0EAF
:10124000E926010EEA22E9CF48F0EACF49F0070E7D
:1012500048C0DBFF080E49C0DBFF060EDB6A040E48
:10126000F36E060EDBCFF4FFF350F45C01E378D0AD
:10127000070EDBCFE9FF080EDBCFEAFF080EE926F9
:10128000000EEA22EECF48F0EECF49F0EECF4AF062
:10129000EFCF4BF0FC0EDBCFE9FFFD0EDBCFEAFF1B
:1012A000020EE926000EEA2248C0EEFF49C0EEFF1A
:1012B0004AC0EEFF4BC0EEFF070EDBCFE9FF080E82
:1012C000DBCFEAFF040EE926000EEA22030EEFCF81
:1012D000DBFF030EDB500B0A27E0070A25E0080AB4
:1012E00014E0020A12E0080A10E00F0A01E02BD015
:1012F000FC0EDBCFE9FFFD0EDBCFEAFF220EE92675
:10130000000EEA22010EEF6E1ED0FC0EDBCFE9FFCD
:10131000FD0EDBCFEAFF220EE926000EEA22020EC6
:10132000EF6E020EDB5027D0FC0EDBCFE9FFFD0E87
:10133000DBCFEAFF220EE926000EEA22030EEF6E53
:10134000020EDB5018D0D950070FE96E000EDA20DC
:10135000EA6E100EEE26000EEF22060EDB2A7FD775
:101360000301050E0F6F050EF36E020EF3CFDBFFC8
:10137000020EDB5000D0486E090EE15C02E2E16A29
:10138000E552E16E4850E552E5CFDAFFE7CFD9FFED
:101390001200D9CFE6FFDACFE6FFE1CFD9FFE2CFE7
:1013A000DAFF150EE12402E3E168E652E16E0C0E6D
:1013B000DB6A130EDB6A140EDB6AFC0EDBCFE9FF7F
:1013C000FD0EDBCFEAFFEECFE6FFEFCFE6FFFC0E30
:1013D000DBCFE9FFFD0EDBCFEAFF020EE926000EB0
:1013E000EA22EECFE6FFEECFE6FFEECFE6FFEFCF4D
:1013F000E6FF98EC9AF0486E060EE15C02E2E16AC4
:10140000E552E16E4850010807E0080EF36E0C0E3D
:10141000F3CFDBFF58EF0FF0FC0EDBCFE9FFFD0E43
:10142000DBCFEAFF0D0EEECFDBFF0E0EEDCFDBFFC5
:101430000D0EDBCFE9FF0E0EDBCFEAFFFE0EE92635
:10144000010EEA22EF5055080DE10D0EDBCFE9FF4A
:101450000E0EDBCFEAFFFF0EE926010EEA22EF5067
:10146000AA0806E0030EF36E0C0EF3CFDBFF65D384
:101470000D0EDBCFE9FF0E0EDBCFEAFF0D0EE926E6
:10148000000EEA22EF50E66EFC0EDBCFE9FFFD0E08
:10149000DBCFEAFF210EE926000EEA22E552E750F3
:1014A000EF6E0D0EDBCFE9FF0E0EDBCFEAFF0E0E67
:1014B000E926000EEA22EECF48F0EFCF49F04A6A63
:1014C0004B6AFC0EDBCFE9FFFD0EDBCFEAFF020E1D
:1014D000E926000EEA22EE504826EE504922EE5050
:1014E0004A22EE504B22FC0EDBCFE9FFFD0EDBCF94
:1014F000EAFF060EE926000EEA2248C0EEFF49C0C8
:10150000EEFF4AC0EEFF4BC0EEFF0D0EDBCFE9FF52
:101510000E0EDBCFEAFF100EE926000EEA22EF5096
:10152000E66EFC0EDBCFE9FFFD0EDBCFEAFF200EFF
:10153000E926000EEA22E552E750EF6E0D0EDBCFF2
:10154000E9FF0E0EDBCFEAFF160EE926000EEA22B7
:10155000EECF48F0EFCF49F04A6A4B6AFC0EDBCF82
:10156000E9FFFD0EDBCFEAFF1C0EE926000EEA22A2
:1015700048C0EEFF49C0EEFF4AC0EEFF4BC0EEFF91
:10158000FC0EDBCFE9FFFD0EDBCFEAFF1C0EE926E8
:10159000000EEA22EECF48F0EECF49F0EECF4AF04F
:1015A000EFCF4BF0485049104A104B1024E10D0E7C
:1015B000DBCFE9FF0E0EDBCFEAFF240EE926000E9B
:1015C000EA22EECF48F0EECF49F0EECF4AF0EFCF6F
:1015D0004BF0FC0EDBCFE9FFFD0EDBCFEAFF1C0E6C
:1015E000E926000EEA2248C0EEFF49C0EEFF4AC0DD
:1015F000EEFF4BC0EEFFFC0EDBCFE9FFFD0EDBCFB5
:10160000EAFF1C0EE926000EEA22EECF50F0EECFE4
:1016100051F0EECF52F0EFCF53F0FC0EDBCFE9FFED
:10162000FD0EDBCFEAFF200EE926000EEA22EFCF07
:101630004CF04D6A4E6A4F6A4CC03AF04DC03BF0D8
:101640004EC03CF04FC03DF050C03FF051C040F0A4
:1016500052C041F053C042F0A0ECCBF036C048F08D
:1016600037C049F038C04AF039C04BF0FC0EDBCF30
:10167000E9FFFD0EDBCFEAFF060EE926000EEA22A7
:10168000EE504826EE504922EE504A22EE504B22B0
:10169000FC0EDBCFE9FFFD0EDBCFEAFF0A0EE926E9
:1016A000000EEA2248C0EEFF49C0EEFF4AC0EEFF3E
:1016B0004BC0EEFF0D0EDBCFE9FF0E0EDBCFEAFFD6
:1016C000110EE926000EEA22EECF48F0EFCF49F0E6
:1016D000FC0EDBCFE9FFFD0EDBCFEAFF120EE926A1
:1016E000000EEA2248C0EEFF49C0EDFF0D0EDBCF31
:1016F000E9FF0E0EDBCFEAFF130EE926000EEA2209
:10170000EE50ED1019E00D0EDBCFE9FF0E0EDBCF32
:10171000EAFF130EE926000EEA22EECF48F0EFCFE3
:1017200049F0040E48C0DBFF050E49C0DBFF060E82
:10173000DB6A070EDB6A16D00D0EDBCFE9FF0E0E5B
:10174000DBCFEAFF200EE926000EEA22040EEECFE0
:10175000DBFF050EEECFDBFF060EEECFDBFF070E45
:10176000EECFDBFF0D0EDBCFE9FF0E0EDBCFEAFF86
:101770000B0EE926000EEA220F0EEECFDBFF100E55
:10178000EDCFDBFFD9500F0FE96E000EDA20EA6EC5
:10179000EE50ED1010E0010EE76E0F0EDBCF48F0BB
:1017A000100EDBCF49F0E7504816496A010E481881
:1017B00001E1495006E1210EF36E0C0EF3CFDBFF81
:1017C000BCD10D0EDBCFE9FF0E0EDBCFEAFF0B0E17
:1017D000E926000EEA22EECF50F0EFCF51F00D0EC9
:1017E000DBCFE9FF0E0EDBCFEAFF110EE926000E7C
:1017F000EA22EECF4CF0EFCF4DF0050ED8904C36EC
:101800004D36E806FBE10D0EDBCFE9FF0E0EDBCF18
:10181000EAFF0B0EE926000EEA22EECF4EF0EFCFE4
:101820004FF04E06000E4F5A4C504E244A6E4D500B
:101830004F204B6E4AC03CF04BC03DF050C041F0D1
:1018400051C042F053ECCDF03CC048F03DC049F0EF
:10185000000E48C0DBFF010E49C0DBFF020EDB6A51
:10186000030EDB6AD9CFE9FFDACFEAFFEECF4CF007
:10187000EECF4DF0EECF4EF0EFCF4FF0FC0EDBCFC2
:10188000E9FFFD0EDBCFEAFF0A0EE926000EEA2291
:10189000EE504C26EE504D22EE504E22EE504F228E
:1018A000D950040FE96E000EDA20EA6E4C50EE5C5F
:1018B000486E4D50EE58496E4E50EE584A6E4F509D
:1018C000EE584B6E080E48C0DBFF090E49C0DBFF27
:1018D0000A0E4AC0DBFF0B0E4BC0DBFFFC0EDBCF5A
:1018E000E9FFFD0EDBCFEAFF210EE926000EEA221A
:1018F000EFCF4CF04D6A4E6A4F6A4CC03FF04DC07E
:1019000040F04EC041F04FC042F0080EDBCF3AF03D
:10191000090EDBCF3BF00A0EDBCF3CF00B0EDBCF2A
:101920003DF055ECCCF03AC048F03BC049F03CC02B
:101930004AF03DC04BF0FC0EDBCFE9FFFD0EDBCFE4
:10194000EAFF140EE926000EEA2248C0EEFF49C065
:10195000EEFF4AC0EEFF4BC0EEFFFC0EDBCFE9FF0F
:10196000FD0EDBCFEAFF140EE926000EEA22F50E8B
:10197000EE5C0F0EEE58000EEE58000EEE580DE223
:10198000FC0EDBCFE9FFFD0EDBCFEAFF220EE926DE
:10199000000EEA22010EEF6E2CD0FC0EDBCFE9FF29
:1019A000FD0EDBCFEAFF140EE926000EEA22F50E4B
:1019B000EE5CFF0EEE58000EEE58000EEE580DE2F3
:1019C000FC0EDBCFE9FFFD0EDBCFEAFF220EE9269E
:1019D000000EEA22020EEF6E0CD0FC0EDBCFE9FF08
:1019E000FD0EDBCFEAFF220EE926000EEA22030EEF
:1019F000EF6EFC0EDBCFE9FFFD0EDBCFEAFF220E20
:101A0000E926000EEA22EF50030843E10D0EDBCF7A
:101A1000E9FF0E0EDBCFEAFF2C0EE926000EEA22CC
:101A2000EECF0BF3EECF0CF3EECF0DF3EFCF0EF3C3
:101A3000D9CFE9FFDACFEAFFEECF48F0EECF49F099
:101A4000EECF4AF0EFCF4BF0FC0EDBCFE9FFFD0EFF
:101A5000DBCFEAFF0A0EE926000EEA22EE50482606
:101A6000EE504922EE504A22EE504B22FC0EDBCFC4
:101A7000E9FFFD0EDBCFEAFF0E0EE926000EEA229B
:101A800048C0EEFF49C0EEFF4AC0EEFF4BC0EEFF7C
:101A90003FD003010B6B0C6B0D6B0E6BFC0EDBCFA1
:101AA000E9FFFD0EDBCFEAFF120EE926000EEA2267
:101AB000EECF48F0EFCF49F0040ED89049324832CB
:101AC000E804FBE14A6A4B6AFC0EDBCFE9FFFD0E3E
:101AD000DBCFEAFF0A0EE926000EEA22EE50482686
:101AE000EE504922EE504A22EE504B22FC0EDBCF44
:101AF000E9FFFD0EDBCFEAFF0E0EE926000EEA221B
:101B000048C0EEFF49C0EEFF4AC0EEFF4BC0EEFFFB
:101B10000D0EDBCFE9FF0E0EDBCFEAFF0B0EE92641
:101B2000000EEA22000ED880EE54020EED5405E2BB
:101B3000210EF36E0C0EF3CFDBFFFC0EDBCFE9FFC3
:101B4000FD0EDBCFEAFF220EE926000EEA22EF505F
:101B500003081FE00C0EDB5001E1A7D10D0EDBCF17
:101B6000E9FF0E0EDBCFEAFF420EE926000EEA2265
:101B7000EF5029080EE00D0EDBCFE9FF0E0EDBCF94
:101B8000EAFF420EE926000EEA22EF50280801E0A3
:101B90008CD10D0EDBCFE9FF0E0EDBCFEAFF130E6B
:101BA000E926000EEA22EE50ED1001E0DCD00D0E29
:101BB000DBCFE9FF0E0EDBCFEAFF340EE926000E85
:101BC000EA22EF5001E0CFD00D0EDBCFE9FF0E0E81
:101BD000DBCFEAFF340EE926000EEA22010EE926E9
:101BE000000EEA22EF5001E0BED00D0EDBCFE9FF80
:101BF0000E0EDBCFEAFF340EE926000EEA22020EBB
:101C0000E926000EEA22EF5001E0ADD00D0EDBCF49
:101C1000E9FF0E0EDBCFEAFF340EE926000EEA22C2
:101C2000030EE926000EEA22EF5001E09CD00D0ED3
:101C3000DBCFE9FF0E0EDBCFEAFF340EE926000E04
:101C4000EA22040EE926000EEA22EF5001E08BD0D2
:101C50000D0EDBCFE9FF0E0EDBCFEAFF340EE926D7
:101C6000000EEA22050EE926000EEA22EF5001E0FE
:101C70007AD00D0EDBCFE9FF0E0EDBCFEAFF340E7C
:101C8000E926000EEA22060EE926000EEA22EF50AF
:101C90006AE10D0EDBCFE9FF0E0EDBCFEAFF340E5B
:101CA000E926000EEA22070EE926000EEA22EF508E
:101CB0005AE10D0EDBCFE9FF0E0EDBCFEAFF340E4B
:101CC000E926000EEA22080EE926000EEA22EF506D
:101CD0004AE10D0EDBCFE9FF0E0EDBCFEAFF340E3B
:101CE000E926000EEA22090EE926000EEA22EF504C
:101CF0003AE10D0EDBCFE9FF0E0EDBCFEAFF340E2B
:101D0000E926000EEA220A0EE926000EEA22EF502A
:101D10002AE10D0EDBCFE9FF0E0EDBCFEAFF340E1A
:101D2000E926000EEA220B0EE926000EEA22EF5009
:101D30001AE10D0EDBCFE9FF0E0EDBCFEAFF420EFC
:101D4000E926000EEA22EF50290812E00D0EDBCF43
:101D5000E9FF0E0EDBCFEAFF420EE926000EEA2273
:101D6000EF50280805E0030EF36E0C0EF3CFDBFFF7
:101D70000C0EDB5051E0130EDB504EE1010EF36E02
:101D8000130EF3CFDBFFFC0EDBCFE9FFFD0EDBCF45
:101D9000EAFFEECFE6FFEFCFE6FF0D0EDBCFE9FF68
:101DA0000E0EDBCFEAFF320EE926000EEA22EECF5E
:101DB00048F0EFCF49F04A6A4B6AFC0EDBCFE9FFEF
:101DC000FD0EDBCFEAFF020EE926000EEA22EE50FE
:101DD0004826EE504922EE504A22EE504B2248C08F
:101DE000E6FF49C0E6FF4AC0E6FF4BC0E6FF98ECBD
:101DF0009AF04C6E060EE15C02E2E16AE552E16E99
:101E00004C50010806E00301080E0F6F080E59D070
:101E100003D00C0EDB6A4AD00C0EDB5046E0140EE9
:101E2000DB5043E1010EF36E140EF3CFDBFFFC0E2B
:101E3000DBCFE9FFFD0EDBCFEAFFEECFE6FFEFCF12
:101E4000E6FF060E486E496A4A6A4B6AFC0EDBCF13
:101E5000E9FFFD0EDBCFEAFF020EE926000EEA22C3
:101E6000EE504826EE504922EE504A22EE504B22C8
:101E700048C0E6FF49C0E6FF4AC0E6FF4BC0E6FFA8
:101E800098EC9AF04C6E060EE15C02E2E16AE552D3
:101E9000E16E4C50010806E00301080E0F6F080EBA
:101EA00010D003D00C0EDB6A01D002D018EF0AF07C
:101EB0000C0EDB5003E00C0EDBCF0FF30C0EDB50EF
:101EC00000D0486E150EE15C02E2E16AE552E16E77
:101ED0004850E552E5CFDAFFE7CFD9FF1200D9CF5E
:101EE000E6FFDACFE6FFE1CFD9FFE2CFDAFFE65235
:101EF000E652E652E652DE6ADE6ADE6ADD6ADD52EC
:101F0000DD52FC0EDBCFE9FFFD0EDBCFEAFF140E46
:101F1000E926000EEA22EECF48F0EFCF49F0000E9E
:101F200048C0DBFF010E49C0DBFF020EDB6A030E77
:101F3000DB6AD9CFE9FFDACFEAFFEECF48F0EECF88
:101F400049F0EECF4AF0EFCF4BF0100E1F0B07E039
:101F5000D890483649364A364B36E806F9E148C04B
:101F6000DFFF010E49C0DBFF020E4AC0DBFF030E9C
:101F70004BC0DBFFFC0EDBCFE9FFFD0EDBCFEAFF42
:101F80001A0EE926000EEA22EECF48F0EFCF49F014
:101F90004A6A4B6A4850DE124950DE124A50DE123D
:101FA0004B50DD12DD52DD52DECF3AF0DECF3BF09A
:101FB000DECF3CF0DDCF3DF0DD52DD5200D0040E2F
:101FC000E15C02E2E16AE552E16EE552E5CFDAFF5B
:101FD000E7CFD9FF1200D9CFE6FFDACFE6FFE1CF96
:101FE000D9FFE2CFDAFF0C0EE12402E3E168E6520A
:101FF000E16EFC0EDBCFE9FFFD0EDBCFEAFFEECF9B
:10200000DEFFEDCFDDFFFC0EDBCFE9FFFD0EDBCF0A
:10201000EAFF300EE926000EEA22080EEECFDBFFC3
:10202000090EEECFDBFF0A0EEECFDBFF0B0EEECF7D
:10203000DBFFDECFE9FFDDCFEAFF180EE926000E59
:10204000EA22EECF4CF0EECF4DF0EECF4EF0EFCFD8
:102050004FF0050ED8904F324E324D324C32E806DA
:10206000F9E1FA0EDBCFE9FFFB0EDBCFEAFFEECFA3
:1020700048F0EFCF49F04A6A4B6A48C03AF049C08D
:102080003BF04AC03CF04BC03DF04CC03FF04DC06F
:1020900040F04EC041F04FC042F055ECCCF0030E82
:1020A0003AC0DBFFDECFE9FFDDCFEAFF220EE926F3
:1020B000000EEA22EF50010A1AE0030A18E0010AB2
:1020C00001E041D0DECFE9FFDDCFEAFF210EE926B6
:1020D000000EEA22EFCF48F048C042F0030EDBCFFB
:1020E0003DF0A6ECCDF0030E39C0DBFF2CD0D9506B
:1020F000080FE96E000EDA20EA6EEE5003010B19AC
:102100000CE1EE5003010C1908E1EE5003010D192A
:1021100004E1EE5003010E1900E114E0DECFE9FF07
:10212000DDCFEAFF210EE926000EEA22EFCF48F0CC
:1021300048C042F0030EDBCF3DF0A6ECCDF0030E1D
:1021400039C0DBFF00D0D950080FE96E000EDA204D
:10215000EA6EEECFE6FFEECFE6FFEECFE6FFEFCF83
:10216000E6FFDECFE6FFDDCFE6FFC7EC2EF0486EE0
:10217000060EE15C02E2E16AE552E16E4850040EAF
:102180003AC0DBFF050E3BC0DBFF060E3CC0DBFFA9
:10219000070E3DC0DBFFE66ADECFE9FFDDCFEAFFD9
:1021A000EECFE6FFEFCFE6FF030EDBCF48F0496A44
:1021B0004A6A4B6AD950040FE96E000EDA20EA6EC3
:1021C000EE504826EE504922EE504A22EE504B2265
:1021D00048C0E6FF49C0E6FF4AC0E6FF4BC0E6FF45
:1021E000DAEC9FF04C6E070EE15C02E2E16AE55228
:1021F000E16E4C50000903E1020EDB6A05D0010ECE
:10220000F36E020EF3CFDBFF020EDB5000D0486E00
:102210000C0EE15C02E2E16AE552E16E4850E552E3
:10222000E5CFDAFFE7CFD9FF1200D9CFE6FFDACF4B
:10223000E6FFE1CFD9FFE2CFDAFF0D0EE12402E3A2
:10224000E168E652E16E0C0EDB6AF80EDBCFE9FFC7
:10225000F90EDBCFEAFF220EE926000EEA22EF504C
:10226000020A36E0030A1DE0020A01E031D0080E3E
:10227000DB68090EDB680A0EDB680F0EF36E0B0ECF
:10228000F3CFDBFFF80EF36E040EF3CFDBFF050E8A
:10229000DB68060EDB680F0EF36E070EF3CFDBFF75
:1022A0002BD0080EDB68090EDB680A0EDB6A0B0E0A
:1022B000DB6AF80EF36E040EF3CFDBFF0F0EF36E46
:1022C000050EF3CFDBFF060EDB6A070EDB6A14D0C8
:1022D000080EDB68090EDB680A0EDB6A0B0EDB6A90
:1022E000F80EF36E040EF3CFDBFF050EDB68060E6F
:1022F000DB6A070EDB6A00D0FA0EDBCF48F0FB0E7C
:10230000DBCF49F0FC0EDBCF4AF0FD0EDBCF4BF00C
:10231000485049104A104B100FE0D950FA0FE96E9F
:10232000FF0EDA20EA6E010EEE1805E1EE5003E131
:10233000EE5001E1EE5006E1020EF36E0C0EF3CF0B
:10234000DBFF08D10C0EDB5001E004D1080EDBCF1F
:1023500049F0090EDBCF4AF00A0EDBCF4BF00B0E33
:10236000DBCF4CF049C0E6FF4AC0E6FF4BC0E6FFBA
:102370004CC0E6FFD950FA0FE96EFF0EDA20EA6E84
:10238000EECFE6FFEECFE6FFEECFE6FFEFCFE6FFC4
:10239000F80EDBCFE6FFF90EDBCFE6FF57EC44F09B
:1023A000486E060EE15C02E2E16AE552E16E4850D9
:1023B000E552E7CF4CF0E552E7CF4BF0E552E7CFDF
:1023C0004AF0E552E7CF49F03AC0DFFF010E3BC0CB
:1023D000DBFF020E3CC0DBFF030E3DC0DBFF3A50CB
:1023E000491809E13B504A1806E13C504B1803E1FB
:1023F0003D504C1800E106E1010EF36E0C0EF3CFD8
:10240000DBFFA7D0D9CFE9FFDACFEAFFEECF48F064
:10241000EECF49F0EECF4AF0EFCF4BF048504910E5
:102420004A104B100DE0D9CFE9FFDACFEAFF010ED9
:10243000EE1805E1EE5003E1EE5001E1EE5006E149
:10244000020EF36E0C0EF3CFDBFF83D0040EDBCF56
:1024500048F0050EDBCF49F0060EDBCF4AF0070E41
:10246000DBCF4BF0D9CFE9FFDACFEAFF4850EE5C83
:102470004950EE584A50EE584B50EE5805E3020EC4
:10248000F36E0C0EF3CFDBFF080EDBCF49F0090E25
:10249000DBCF4AF00A0EDBCF4BF00B0EDBCF4CF05C
:1024A00049C0E6FF4AC0E6FF4BC0E6FF4CC0E6FF6E
:1024B000E66AE66AE66AE66AE66AD950FA0FE96E03
:1024C000FF0EDA20EA6EEECFE6FFEECFE6FFEECFAC
:1024D000E6FFEFCFE6FFF80EDBCFE6FFF90EDBCF2E
:1024E000E6FF93EC49F0486E0B0EE15C02E2E16A14
:1024F000E552E16E4850E552E7CF4CF0E552E7CFA8
:102500004BF0E552E7CF4AF0E552E7CF49F03A50B9
:10251000491809E13B504A1806E13C504B1803E1C9
:102520003D504C1800E105E1010EF36E0C0EF3CFA7
:10253000DBFFD9CFE9FFDACFEAFFFA0EEECFDBFF00
:10254000FB0EEECFDBFFFC0EEECFDBFFFD0EEECF82
:10255000DBFFF8D6010EE66EE66AE66AE66AE66A30
:10256000E66AE66AE66AE66AF80EDBCFE6FFF90E8F
:10257000DBCFE6FF93EC49F0486E0B0EE15C02E224
:10258000E16AE552E16E48500C0EDB50020803E1AF
:10259000010E03D002D0000E00D0486E0D0EE15C9B
:1025A00002E2E16AE552E16E4850E552E5CFDAFF1A
:1025B000E7CFD9FF1200D9CFE6FFDACFE6FFE1CFB0
:1025C000D9FFE2CFDAFF170EE12402E3E168E65219
:1025D000E16EFC0EDBCFE9FFFD0EDBCFEAFF020E62
:1025E000EECFDBFF030EEDCFDBFFFC0EDBCFE9FF11
:1025F000FD0EDBCFEAFF2C0EE926000EEA22080EC4
:10260000EECFDBFF090EEECFDBFF0A0EEECFDBFFD6
:102610000B0EEECFDBFFFC0EDBCFE9FFFD0EDBCFB9
:10262000EAFF300EE926000EEA22100EEECFDBFFA5
:10263000110EEECFDBFF120EEECFDBFF130EEECF4F
:10264000DBFF020EDBCFE9FF030EDBCFEAFF180E44
:10265000E926000EEA22EECF3AF0EECF3BF0EECFC5
:102660003CF0EFCF3DF0200E3F6E406A416A426A77
:1026700055ECCCF0160E3AC0DBFF160EDB50486E60
:10268000496AFA0EDBCFE9FFFB0EDBCFEAFFEECFA4
:102690003CF0EDCF3DF048C041F049C042F053EC72
:1026A000CDF0140E3CC0DBFF020EDBCFE9FF030EC2
:1026B000DBCFEAFF220EE926000EEA22EF50010AE4
:1026C0002AE0030A28E0010A01E025D0020EDBCF50
:1026D000E9FF030EDBCFEAFF210EE926000EEA2216
:1026E000EFCF48F048C042F0140EDBCF3DF0A6EC2F
:1026F000CDF0140E39C0DBFFF80EF36E0C0EF3CFE5
:10270000DBFF0D0EDB680E0EDB680F0EF36E0F0E97
:10271000F3CFDBFF33D0080EDBCF48F0090EDBCF61
:1027200049F00A0EDBCF4AF00B0EDBCF4BF04850DE
:1027300049104A104B1016E0020EDBCFE9FF030EE2
:10274000DBCFEAFF210EE926000EEA22EFCF48F0A8
:1027500048C042F0140EDBCF3DF0A6ECCDF0140ED5
:1027600039C0DBFFF80EF36E0C0EF3CFDBFF0D0E5E
:10277000DB680E0EDB6A0F0EDB6A00D0F90EDB5051
:102780000EE1FA0EDBCFE9FFFB0EDBCFEAFFEECF67
:102790003CF0EDCF3DF03C500F0B01E0F4D1140EB6
:1027A000DB5013E1FA0EDBCFE9FFFB0EDBCFEAFFD4
:1027B000EECF48F0EFCF49F0160EDB504A6E4B6A71
:1027C0004A50485C4B50495804E2F90EDB5001E195
:1027D000A2D0080EDBCF48F0090EDBCF49F00A0E7D
:1027E000DBCF4AF00B0EDBCF4BF0485049104A10BC
:1027F0004B1009E1100EDB6A110EDB6A120EDB6A68
:10280000130EDB6A88D0F90EDB5033E0020EDBCF0B
:10281000E9FF030EDBCFEAFF210EE926000EEA22D4
:10282000EF504C6E4D6A160EDB504A6E4B6A4AC032
:102830003CF04BC03DF04CC041F04DC042F0A0EC2C
:10284000C3F03AC048F03BC049F0FA0EDBCFE9FFD5
:10285000FB0EDBCFEAFFEECF3CF0EDCF3DF048C002
:1028600041F049C042F053ECCDF0150E3CC0DBFF07
:1028700005D0010EF36E150EF3CFDBFF150EDB5006
:102880004AE0D950100FE96E000EDA20EA6EEECF62
:10289000E6FFEECFE6FFEECFE6FFEFCFE6FF020E5C
:1028A000DBCFE6FF030EDBCFE6FF57EC44F0486ECC
:1028B000060EE15C02E2E16AE552E16E4850100E5C
:1028C0003AC0DBFF110E3BC0DBFF120E3CC0DBFF4A
:1028D000130E3DC0DBFF0C0EDBCF48F00D0EDBCF3F
:1028E00049F00E0EDBCF4AF00F0EDBCF4BF0D95084
:1028F000100FE96E000EDA20EA6E4850EE5C495087
:10290000EE584A50EE584B50EE5802E304D002D035
:10291000150EDB06B3D70C0EDBCF48F00D0EDBCF68
:1029200049F00E0EDBCF4AF00F0EDBCF4BF0D95043
:10293000100FE96E000EDA20EA6E4850EE5C495046
:10294000EE584A50EE584B50EE5801E316D1FC0EAB
:10295000DBCFE9FFFD0EDBCFEAFF300EE926000EEC
:10296000EA22100EDBCFEEFF110EDBCFEEFF120ED0
:10297000DBCFEEFF130EDBCFEEFFD950100FE96E69
:10298000000EDA20EA6EEECFE6FFEECFE6FFEECFE6
:10299000E6FFEFCFE6FF020EDBCFE6FF030EDBCF55
:1029A000E6FFC7EC2EF0486E060EE15C02E2E16A3B
:1029B000E552E16E4850040E3AC0DBFF050E3BC005
:1029C000DBFF060E3CC0DBFF070E3DC0DBFFD9502E
:1029D000100FE96E000EDA20EA6EEE5003010B19BB
:1029E0000CE1EE5003010C1908E1EE5003010D1942
:1029F00004E1EE5003010E1900E139E1140EDBCFC2
:102A000048F0496A4A6A4B6AD950040FE96E000ED1
:102A1000DA20EA6EEE504826EE504922EE504A2265
:102A2000EE504B22020EDBCFE9FF030EDBCFEAFFB5
:102A30000E0EE926000EEA22EE50485CEE50495890
:102A4000EE504A58EE504B5812E3030E4C6E020EF5
:102A5000DBCFE9FF030EDBCFEAFF220EE926000EF3
:102A6000EA22EF504C5C03E0DE6ADD6A85D00E019D
:102A70002C5107E0D0EC34F0000903E0F36AF46A6B
:102A8000B9D00E01266B276B0E012E6B020EDBCF29
:102A9000E9FF030EDBCFEAFFEECFE6FFEFCFE6FF65
:102AA000140EDBCF48F0496A4A6A4B6AD950040FCA
:102AB000E96E000EDA20EA6EEE504826EE5049220A
:102AC000EE504A22EE504B2248C0E6FF49C0E6FFD6
:102AD0004AC0E6FF4BC0E6FF98EC9AF04C6E060E3B
:102AE000E15C02E2E16AE552E16E4C50010803E06C
:102AF000DE6ADD6A3CD0F90EDB502FE0160EDB50AB
:102B00004C6E4D6AFA0EDBCFE9FFFB0EDBCFEAFF1E
:102B1000EECF3CF0EDCF3DF04CC041F04DC042F067
:102B200053ECCDF038C04AF039C04BF0050ED890C8
:102B30004A364B36E806FBE1020EDBCFE9FF030E17
:102B4000DBCFEAFF4A50EE24486E4B50EE20496E30
:102B500048C0DEFF49C0DDFF0AD0020EDBCFE9FF2F
:102B6000030EDBCFEAFFEECFDEFFEDCFDDFF0E0180
:102B7000286929692A692B6905D00E01010E2D6F7C
:102B8000DE6ADD6A2ED0160EDB504C6E4D6AFA0EF0
:102B9000DBCFE9FFFB0EDBCFEAFFEECF3CF0EDCF62
:102BA0003DF04CC041F04DC042F053ECCDF038C088
:102BB0004AF039C04BF0050ED8904A364B36E8063D
:102BC000FBE1020EDBCFE9FF030EDBCFEAFF4A5049
:102BD000EE24486E4B50EE20496E48C0DEFF49C0DF
:102BE000DDFFDECF48F0DDCF49F048C0F3FF49C03C
:102BF000F4FF00D0170EE15C02E2E16AE552E16EFB
:102C0000E552E5CFDAFFE7CFD9FF1200D9CFE6FFD3
:102C1000DACFE6FFE1CFD9FFE2CFDAFFE652DF6A93
:102C200003010F6BFA0EDBCFE9FFFB0EDBCFEAFFF0
:102C3000EE6AED6AFA0EDBCFE6FFFB0EDBCFE6FFB6
:102C4000FC0EDBCFE6FFFD0EDBCFE6FF1ED9E55223
:102C5000E552E552E55200092AE1F90EDBCFE6FF25
:102C6000FA0EDBCFE6FFFB0EDBCFE6FFFC0EDBCF81
:102C7000E6FFFD0EDBCFE6FF9BDA486E050EE15C5A
:102C800002E2E16AE552E16E4850DF6EDF500EE18C
:102C9000F80EDB500BE0FC0EDBCFE6FFFD0EDBCFCA
:102CA000E6FF12D8E552E552DF6E00D002D0140ED6
:102CB000DF6EDFCF0FF3DF5000D0E552E552E5CFF6
:102CC000DAFFE7CFD9FF1200D9CFE6FFDACFE6FF70
:102CD000E1CFD9FFE2CFDAFF0D0EE12402E3E16894
:102CE000E652E16EFC0EDBCFE9FFFD0EDBCFEAFF23
:102CF000260EE926000EEA22090EEECFDBFF0A0EB1
:102D0000EDCFDBFFD950010FE66E000EDA20E66E44
:102D1000FC0EDBCFE6FFFD0EDBCFE6FFD2EC2CF0A6
:102D2000E552E552E552E552DF6EDF5001E09DD0FD
:102D3000D950090FE66E000EDA20E66EFC0EDBCFEE
:102D4000E6FFFD0EDBCFE6FFB1EC22F0E552E552E7
:102D5000E552E5520B0EF3CFDBFF0C0EF4CFDBFF99
:102D6000486849684A6A4B6AD950010FE96E000EFB
:102D7000DA20EA6EEE504816EE504916EE504A162A
:102D8000EE504B160B0EDBCFE9FF0C0EDBCFEAFF4C
:102D90001A0EE926000EEA2248C0EEFF49C0EDFFF8
:102DA000486A496A4A680F0E4B6ED950010FE96EA6
:102DB000000EDA20EA6EEE504816EE504916EE503C
:102DC0004A16EE504B16050E48C0DBFF060E49C0F2
:102DD000DBFF070E4AC0DBFF080E4BC0DBFF050E12
:102DE000DBCF48F0060EDBCF49F0070EDBCF4AF011
:102DF000080EDBCF4BF0100ED8904B324A324932DE
:102E00004832E806F9E1050E48C0DBFF060E49C06E
:102E1000DBFF070E4AC0DBFF080E4BC0DBFF0B0ECB
:102E2000DBCFE9FF0C0EDBCFEAFF140EE926000E24
:102E3000EA22050EDBCFEEFF060EDBCFEDFFD95009
:102E4000090FE66E000EDA20E66EFC0EDBCFE6FF21
:102E5000FD0EDBCFE6FFEBEC0FF0E552E552E5525D
:102E6000E552010802E0090EDF6EDF5000D0486E27
:102E70000D0EE15C02E2E16AE552E16E4850E55276
:102E8000E5CFDAFFE7CFD9FF1200D9CFE6FFDACFDF
:102E9000E6FFE1CFD9FFE2CFDAFF0C0EE12402E337
:102EA000E168E652E16E010EDF6E030EDB6AFA0E98
:102EB000DBCFE9FFFB0EDBCFEAFF040EEECFDBFF3B
:102EC000050EEDCFDBFFFC0EDBCFE9FFFD0EDBCF08
:102ED000EAFF2C0EE926000EEA22EECF48F0EECFF4
:102EE00049F0EECF4AF0EFCF4BF0FC0EDBCFE9FF1D
:102EF000FD0EDBCFEAFF300EE926000EEA2248C0C5
:102F0000EEFF49C0EEFF4AC0EEFF4BC0EEFF010EE0
:102F1000E66EFA0EDBCFE6FFFB0EDBCFE6FFFC0E24
:102F2000DBCFE6FFFD0EDBCFE6FFDBEC12F04A6EF7
:102F3000050EE15C02E2E16AE552E16E4A500A0EDA
:102F4000F3CFDBFF0B0EF4CFDBFFF3CF48F0F4CF72
:102F500049F04850491001E10FD1010EF36E020E05
:102F6000F3CFDBFFDF0401E007D1010EDB6AFA0ECD
:102F7000DBCFE9FFFB0EDBCFEAFF040EEECFDBFF7A
:102F8000050EEDCFDBFFE66AFA0EDBCFE6FFFB0EA8
:102F9000DBCFE6FFFC0EDBCFE6FFFD0EDBCFE6FF6F
:102FA000DBEC12F0486E050EE15C02E2E16AE552EC
:102FB000E16E48500A0EF3CFDBFF0B0EF4CFDBFFC0
:102FC000D9500A0FE96E000EDA20EA6EEE50ED10CD
:102FD00009E00A0EDBCFE9FF0B0EDBCFEAFF030EA1
:102FE000EFCFDBFFFA0EDBCFE9FFFB0EDBCFEAFF13
:102FF000EE2A000EEF22D9500A0FE96E000EDA20F9
:10300000EA6EEE50ED1012E0030EDB50E50803E02F
:10301000030EDB500BE1010EDB2A020EDB50F36ED8
:10302000010EDBCFF4FFF350F45CADE3D9500A0F8F
:10303000E96E000EDA20EA6EEE50ED1001E093D05A
:10304000FC0EDBCFE9FFFD0EDBCFEAFF300EE926F9
:10305000000EEA22060EEECFDBFF070EEECFDBFFFF
:10306000080EEECFDBFF090EEECFDBFFD950060FC7
:10307000E96E000EDA20EA6EEE5003010B190CE146
:10308000EE5003010C1908E1EE5003010D1904E1A3
:10309000EE5003010E1900E13DE1FC0EDBCFE9FF2C
:1030A000FD0EDBCFEAFFEE50EFCFEAFFE96E220E16
:1030B000E926000EEA22EF50030803E0020EDF6E5D
:1030C00028D0FC0EDBCFE9FFFD0EDBCFEAFF060EBA
:1030D000E926000EEA22060EDBCFEEFF070EDBCF5D
:1030E000EEFF080EDBCFEEFF090EDBCFEEFF010E89
:1030F000E66EFC0EDBCFE6FFFD0EDBCFE6FFEDDA82
:10310000E552E552E552150803E1020EDF6E01D0EB
:10311000DF6A28D0FC0EDBCFE9FFFD0EDBCFEAFF34
:10312000060EE926000EEA22060EDBCFEEFF070EA2
:10313000DBCFEEFF080EDBCFEEFF090EDBCFEEFF9D
:10314000010EE66EFC0EDBCFE6FFFD0EDBCFE6FFE9
:10315000C4DAE552E552E552150803E1020EDF6ECE
:1031600001D0DF6A08D0020EDB50F36E010EDB5097
:10317000F35C01E1DF6AF6D6FA0EDBCFE9FFFB0E66
:10318000DBCFEAFF040EDBCFEEFF050EDBCFEDFF5A
:10319000DF5000D0486E0C0EE15C02E2E16AE552BD
:1031A000E16E4850E552E5CFDAFFE7CFD9FF1200D4
:1031B000D9CFE6FFDACFE6FFE1CFD9FFE2CFDAFFE2
:1031C000E652E652E652DF6AFC0EDBCFE9FFFD0E67
:1031D000DBCFEAFF2C0EE926000EEA22EECF48F004
:1031E000EECF49F0EECF4AF0EFCF4BF0FC0EDBCF45
:1031F000E9FFFD0EDBCFEAFF300EE926000EEA22E2
:1032000048C0EEFF49C0EEFF4AC0EEFF4BC0EEFFE4
:10321000010EE66EFA0EDBCFE6FFFB0EDBCFE6FF1C
:10322000FC0EDBCFE6FFFD0EDBCFE6FFDBEC12F0A2
:10323000486E050EE15C02E2E16AE552E16E48503B
:10324000DE52F3CFDEFFF4CFDDFFDD52D950010FA8
:10325000E96E000EDA20EA6EEE50ED1002E11B0E70
:103260006FD10B0EE66EE66AFC0EDBCFE9FFFD0EBA
:10327000DBCFEAFF1B0EE926000EEA22E9CF48F079
:10328000EACF49F048C0E6FF49C0E6FF010EDBCFB8
:10329000E9FF020EDBCFEAFFE9CF4AF0EACF4BF0BD
:1032A0004AC0E6FF4BC0E6FFEEECC8F04C6E060EDF
:1032B000E15C02E2E16AE552E16E4C50F90EDB504E
:1032C00012080DE1010EDBCFE9FF020EDBCFEAFFB2
:1032D0000B0EE926000EEA22100EEF6E0CD0010E46
:1032E000DBCFE9FF020EDBCFEAFF0B0EE926000E73
:1032F000EA22200EEF6E010EDBCFE9FF020EDBCFDC
:10330000EAFF0C0EE926000EEA22EF6A010EDBCF7F
:10331000E9FF020EDBCFEAFF140EEB6A150EEB6A33
:10332000010EDBCFE9FF020EDBCFEAFF1A0EEB6ADC
:103330001B0EEB6A010EDBCFE9FF020EDBCFEAFFCB
:103340001C0EE926000EEA22EE6AEE6AEE6AEE6ACA
:10335000010EDBCFE9FF020EDBCFEAFF0D0EE926FF
:10336000000EEA2200C3EFFF010EDBCFE9FF020EE1
:10337000DBCFEAFF0E0EE926000EEA2201C3EEFFC4
:1033800002C3EDFF010EDBCFE9FF020EDBCFEAFF48
:10339000100EE926000EEA2203C3EEFF04C3EDFF80
:1033A000010EDBCFE9FF020EDBCFEAFF120EE926AA
:1033B000000EEA2205C3EEFF06C3EDFF010EDBCFD0
:1033C000E9FF020EDBCFEAFF160EE926000EEA2225
:1033D00007C3EEFF08C3EDFF010EDBCFE9FF020ECE
:1033E000DBCFEAFF180EE926000EEA2209C3EEFF42
:1033F0000AC3EDFF010EDBCFE9FF020EDBCFEAFFD0
:103400001C0EE926000EEA22EECF48F0EECF49F07E
:10341000EECF4AF0EFCF4BF0FC0EDBCFE9FFFD0E15
:10342000DBCFEAFF120EE926000EEA2248C0EEFFCB
:1034300049C0EEFF4AC0EEFF4BC0EEFF010EDBCFEE
:10344000E9FF020EDBCFEAFF0E0EE926000EEA22AC
:10345000EECF48F0EFCF49F0FC0EDBCFE9FFFD0ED9
:10346000DBCFEAFF170EE926000EEA2248C0EEFF86
:1034700049C0EDFF010EDBCFE9FF020EDBCFEAFF13
:10348000100EE926000EEA22EECF48F0EFCF49F009
:10349000FC0EDBCFE9FFFD0EDBCFEAFF190EE926BC
:1034A000000EEA2248C0EEFF49C0EDFF010EDBCF5F
:1034B000E9FF020EDBCFEAFF0B0EE926000EEA223F
:1034C000EF50E66EFC0EDBCFE9FFFD0EDBCFEAFF2F
:1034D0002A0EE926000EEA22E552E750EE6EED6A6A
:1034E000FA0EDBCFE9FFFB0EDBCFEAFFEECF48F0B1
:1034F000EFCF49F0FC0EDBCFE9FFFD0EDBCFEAFF9B
:10350000260EE926000EEA2248C0EEFF49C0EDFF74
:10351000FA0EDBCFE6FFFB0EDBCFE6FFFC0EDBCFC8
:10352000E6FFFD0EDBCFE6FFEBEC0FF0E552E552D8
:10353000E552E552010802E0090EDF6EDF5000D0CF
:10354000E552E552E552E552E5CFDAFFE7CFD9FF84
:103550001200D9CFE6FFDACFE6FFE1CFD9FFE2CF05
:10356000DAFFE652E652FC0EDBCF48F0FD0EDBCF71
:1035700049F0BC0E485C070E495830E3D950FC0FA7
:10358000E96EFF0EDA20EA6E3B0ED880EE54080E8C
:10359000ED5424E3010EF36EFB0EDBCFF4FFF3508A
:1035A000F45C1CE3FB0EDB500C0818E3010EF36E19
:1035B000FA0EDBCFF4FFF350F45C10E3FA0EDB50AD
:1035C0001F080CE3F90EDB50170808E3F80EDB5078
:1035D0003B0804E3F70EDB503B0806E203011F0E35
:1035E0000F6FF368F46871D0FC0EDBCF48F0FD0E6E
:1035F000DBCF49F0BC0E485E070E495A48C049F07F
:10360000486AD890493648C0DEFF49C0DDFFFB0E4E
:10361000DB50486E496A050ED89048364936E804B2
:10362000FBE1D9CFE9FFDACFEAFF4850EE1249506B
:10363000ED12FA0EDB50DF12DECF05F3DDCF06F31D
:10364000DECF03F3DDCF04F3DECF09F3DDCF0AF3E2
:10365000F90EDB50486E496A4850486AE834E8344D
:10366000E834F80B496E48C0DEFF49C0DDFFF80EB4
:10367000DB50486E496A050ED89048364936E80452
:10368000FBE1D9CFE9FFDACFEAFF4850EE1249500B
:10369000ED12F70EDB50FE0BE842DF12DECF01F336
:1036A000DDCF02F3DECF07F3DDCF08F3F70EDB50FB
:1036B000010B04E00301640E006F02D00301006BF4
:1036C00003010F6BF36AF46A00D0E552E552E5524C
:1036D000E5CFDAFFE7CFD9FF1200D9CFE6FFDACF87
:1036E000E6FFE1CFD9FFE2CFDAFF0A0EE12402E3E1
:1036F000E168E652E16EFC0EDBCFE9FFFD0EDBCFA9
:10370000EAFFEECFDEFFEDCFDDFFFC0EDBCFE9FF02
:10371000FD0EDBCFEAFF060EE926000EEA22020EBE
:10372000EECFDBFF030EEECFDBFF040EEECFDBFFB1
:10373000050EEECFDBFFFC0EDBCFE6FFFD0EDBCF91
:10374000E6FF28D9E552E552020E3AC0DBFF030E30
:103750003BC0DBFF040E3CC0DBFF050E3DC0DBFFC2
:10376000020EDBCF48F0030EDBCF49F0040EDBCFB7
:103770004AF0050EDBCF4BF0485049104A104B1071
:1037800002E1150EF9D0DECFE9FFDDCFEAFF220E10
:10379000E926000EEA22EF0424E1E66AF80EE66E5E
:1037A0000F0EE66EE66AE66AD950020FE96E000E69
:1037B000DA20EA6EEECFE6FFEECFE6FFEECFE6FFD1
:1037C000EFCFE6FFDECFE6FFDDCFE6FF93EC49F07B
:1037D000486E0B0EE15C02E2E16AE552E16E485090
:1037E00051D0DECFE9FFDDCFEAFF220EE926000E41
:1037F000EA22EF50020823E1E66AF80EE66EE66878
:10380000E66AE66AD950020FE96E000EDA20EA6E27
:10381000EECFE6FFEECFE6FFEECFE6FFEFCFE6FF1F
:10382000DECFE6FFDDCFE6FF93EC49F0486E0B0EEE
:10383000E15C02E2E16AE552E16E485023D0E66ABB
:10384000F80EE66EE668E6680F0EE66ED950020FD7
:10385000E96E000EDA20EA6EEECFE6FFEECFE6FF6D
:10386000EECFE6FFEFCFE6FFDECFE6FFDDCFE6FFF0
:1038700093EC49F0486E0B0EE15C02E2E16AE5521E
:10388000E16E4850FC0EDBCFE9FFFD0EDBCFEAFF17
:10389000060EE926000EEA22060EEECFDBFF070E2B
:1038A000EECFDBFF080EEECFDBFF090EEECFDBFF26
:1038B000E66AD950020FE96E000EDA20EA6EEECF0A
:1038C000E6FFEECFE6FFEECFE6FFEFCFE6FFD95003
:1038D000060FE96E000EDA20EA6EEECFE6FFEECFBD
:1038E000E6FFEECFE6FFEFCFE6FFDECFE6FFDDCF70
:1038F000E6FF93EC49F0486E0B0EE15C02E2E16AF0
:10390000E552E16E4850FC0EDBCFE9FFFD0EDBCF48
:10391000EAFF060EE926000EEA22020EDBCFEEFFDA
:10392000030EDBCFEEFF040EDBCFEEFF050EDBCF89
:10393000EEFFFB0EDB041EE1D950020FE96E000E14
:10394000DA20EA6EEECFE6FFEECFE6FFEECFE6FF3F
:10395000EFCFE6FFDECFE6FFDDCFE6FFFEEC2DF09A
:10396000486E060EE15C02E2E16AE552E16E485003
:1039700003D002D0000E00D0486E0A0EE15C02E2D5
:10398000E16AE552E16E4850E552E5CFDAFFE7CF54
:10399000D9FF1200D9CFE6FFDACFE6FFE1CFD9FF9A
:1039A000E2CFDAFF160EE12402E3E168E652E16EAF
:1039B000020EDB6A030EDB6A040EDB6A050EDB6AAD
:1039C000FC0EDBCFE9FFFD0EDBCFEAFFEECFDEFF23
:1039D000EDCFDDFFFC0EDBCFE9FFFD0EDBCFEAFF15
:1039E000060EE926000EEA22060EEECFDBFF070EDA
:1039F000EECFDBFF080EEECFDBFF090EEECFDBFFD5
:103A0000DECFE9FFDDCFEAFF220EE926000EEA2233
:103A1000EF50020A36E0030A1DE0020A01E031D04D
:103A2000F70EF36E0E0EF3CFDBFF0F0EDB68100EFA
:103A3000DB680F0EF36E110EF3CFDBFF120EDB68A7
:103A4000130EDB68140EDB680F0EF36E150EF3CF4A
:103A5000DBFF2BD0F70EF36E0E0EF3CFDBFF0F0E56
:103A6000F36E0F0EF3CFDBFF100EDB6A110EDB6A75
:103A7000120EDB68130EDB68140EDB6A150EDB6AB0
:103A800014D0F70EF36E0E0EF3CFDBFF0F0EDB68D4
:103A9000100EDB6A110EDB6A120EDB68130EDB6898
:103AA000140EDB6A150EDB6A00D0D950060FE96EE2
:103AB000000EDA20EA6E020EEE5C000EEE58000EEA
:103AC000EE58000EEE580BE2020EF36E060EF3CF28
:103AD000DBFF070EDB6A080EDB6A090EDB6AD950D2
:103AE000060FE96E000EDA20EA6E0A0EEECFDBFF5B
:103AF0000B0EEECFDBFF0C0EEECFDBFF0D0EEECF8D
:103B0000DBFFD950060FE96E000EDA20EA6EEECF29
:103B1000E6FFEECFE6FFEECFE6FFEFCFE6FFDECF2C
:103B2000E6FFDDCFE6FF57EC44F0486E060EE15CA1
:103B300002E2E16AE552E16E4850060EDBCF48F042
:103B4000070EDBCF49F0080EDBCF4AF0090EDBCFC2
:103B50004BF0485049104A104B1001E1F2D0120EC0
:103B6000DBCF49F0130EDBCF4AF0140EDBCF4BF066
:103B7000150EDBCF4CF049C0E6FF4AC0E6FF4BC054
:103B8000E6FF4CC0E6FFD950060FE96E000EDA20C2
:103B9000EA6EEECFE6FFEECFE6FFEECFE6FFEFCF29
:103BA000E6FFDECFE6FFDDCFE6FF57EC44F0486EE0
:103BB000060EE15C02E2E16AE552E16E4850E55230
:103BC000E7CF4CF0E552E7CF4BF0E552E7CF4AF0B4
:103BD000E552E7CF49F0020E3AC0DBFF030E3BC0CF
:103BE000DBFF040E3CC0DBFF050E3DC0DBFF3A509F
:103BF000491809E13B504A1806E13C504B1803E1D3
:103C00003D504C1800E109E1060EDB6A070EDB6A45
:103C1000080EDB6A090EDB6A94D0020EDBCF48F097
:103C2000030EDBCF49F0040EDBCF4AF0050EDBCFED
:103C30004BF0485049104A104B1001E182D0D95046
:103C4000060FE96E000EDA20EA6EEE2A000EEE2272
:103C5000EE22EE22020EDBCF48F0030EDBCF49F05E
:103C6000040EDBCF4AF0050EDBCF4BF0D9500E0F20
:103C7000E96E000EDA20EA6E4850EE1809E149506C
:103C8000EE1806E14A50EE1803E14B50EE1800E141
:103C900024E0020E4C6E4D6A4E6A4F6ADECFE9FF99
:103CA000DDCFEAFF140EE926000EEA22EE504C2684
:103CB000EE504D22EE504E22EE504F22D950060FBC
:103CC000E96E000EDA20EA6E4C50EE5C4D50EE5874
:103CD0004E50EE584F50EE580BE3020EF36E060EA8
:103CE000F3CFDBFF070EDB6A080EDB6A090EDB6A27
:103CF000060EDBCF48F0070EDBCF49F0080EDBCF16
:103D00004AF0090EDBCF4BF0D9500A0FE96E000ED6
:103D1000DA20EA6E4850EE1809E14950EE1806E143
:103D20004A50EE1803E14B50EE1800E109E1060E8F
:103D3000DB6A070EDB6A080EDB6A090EDB6A01D05C
:103D4000FCD6060EDBCF48F0070EDBCF49F0080E9D
:103D5000DBCF4AF0090EDBCF4BF048C03AF049C048
:103D60003BF04AC03CF04BC03DF000D0160EE15C89
:103D700002E2E16AE552E16EE552E5CFDAFFE7CF14
:103D8000D9FF1200D9CFE6FFDACFE6FFE1CFD9FFA6
:103D9000E2CFDAFF060EE12402E3E168E652E16ECB
:103DA000480EF36E020EF3CFDBFF030EDB6A030156
:103DB0000F6BFC0EDBCFE9FFFD0EDBCFEAFF260E1B
:103DC000E926000EEA22EECFDEFFEDCFDDFFFC0E8E
:103DD000DBCFE9FFFD0EDBCFEAFF160EE926000E72
:103DE000EA22EF50010B01E11DD10E012C510AE036
:103DF000D0EC34F0000906E00301090E0F6FF36800
:103E0000F4683FD1010EE66EE66AE66AE66AE66AA3
:103E1000E66AE66AE66AE66AFC0EDBCFE9FFFD0EBB
:103E2000DBCFEAFFEECFE6FFEFCFE6FF93EC49F002
:103E3000486E0B0EE15C02E2E16AE552E16E485029
:103E40000E01216B226B236B246BFC0EDBCFE9FF91
:103E5000FD0EDBCFEAFF060EE926000EEA22EECFCA
:103E6000E6FFEECFE6FFEECFE6FFEFCFE6FFFC0E7C
:103E7000DBCFE9FFFD0EDBCFEAFFEECFE6FFEFCFB2
:103E8000E6FF57EC44F0486E060EE15C02E2E16AA0
:103E9000E552E16E4850D9CFE6FFDACFE6FFFC0EDF
:103EA000DBCFE6FFFD0EDBCFE6FF5BDBE552E55245
:103EB000E552E552040EF3CFDBFF050EF4CFDBFF36
:103EC000D950040FE96E000EDA20EA6EEE50ED10C4
:103ED00012E103011B0E0F6F020EDB68030EDB689D
:103EE000020EDBCF48F0030EDBCF49F048C0F3FFF2
:103EF00049C0F4FFC6D0040EDBCFE9FF050EDBCFCF
:103F0000EAFF160EE926000EEA2207C3EEFF08C3F9
:103F1000EDFF040EDBCFE9FF050EDBCFEAFF180E45
:103F2000E926000EEA2209C3EEFF0AC3EDFFFC0EEC
:103F3000DBCFE9FFFD0EDBCFEAFF120EE926000E14
:103F4000EA22EECF48F0EECF49F0EECF4AF0EFCFC5
:103F50004BF0040EDBCFE9FF050EDBCFEAFF1C0EB2
:103F6000E926000EEA2248C0EEFF49C0EEFF4AC033
:103F7000EEFF4BC0EEFFFC0EDBCFE9FFFD0EDBCF0B
:103F8000EAFF2A0EE926000EEA22EF50E66E040E42
:103F9000DBCFE9FF050EDBCFEAFF0B0EE926000EB3
:103FA000EA22E552E750EF6ED9CFE6FFDACFE6FF1F
:103FB000FC0EDBCFE6FFFD0EDBCFE6FFEBEC0FF0F8
:103FC000E552E552E552E55200091AE0D9CFE6FF85
:103FD000DACFE6FFFC0EDBCFE6FFFD0EDBCFE6FF20
:103FE000C0DAE552E552E552E552040EF3CFDBFFAD
:103FF000050EF4CFDBFF020EDB6A030EDB6A07D08F
:104000000301090E0F6F020EDB68030EDB68FC0E66
:10401000DBCFE9FFFD0EDBCFEAFF160EE926000E2F
:10402000EA22EF90FC0EDBCFE9FFFD0EDBCFEAFFCB
:10403000160EE926000EEA22EF92FC0EDBCFE6FF19
:10404000FD0EDBCFE6FF4FECC0F0E552E552D95054
:10405000020FE96E000EDA20EA6E480EEE1801E15A
:10406000ED5004E1020EDB6A030EDB6A020EDBCFC9
:1040700048F0030EDBCF49F048C0F3FF49C0F4FF1E
:1040800000D0060EE15C02E2E16AE552E16EE55223
:10409000E5CFDAFFE7CFD9FF1200D9CFE6FFDACFBD
:1040A000E6FFE1CFD9FFE2CFDAFF070EE12402E31A
:1040B000E168E652E16E060EDB6AFA0EDBCFE9FF3D
:1040C000FB0EDBCFEAFFEECF3CF0EDCF3DF03C50F6
:1040D0000F0B4AE1FA0EDBCFE9FFFB0EDBCFEAFF65
:1040E000EE50ED1041E0FC0EDBCFE9FFFD0EDBCF23
:1040F000EAFF2C0EE926000EEA22EECF48F0EECFC2
:1041000049F0EECF4AF0EFCF4BF0FC0EDBCFE9FFEA
:10411000FD0EDBCFEAFF300EE926000EEA2248C092
:10412000EEFF49C0EEFF4AC0EEFF4BC0EEFF010EAE
:10413000E66EFA0EDBCFE6FFFB0EDBCFE6FFFC0EF2
:10414000DBCFE6FFFD0EDBCFE6FFDBEC12F0486EC7
:10415000050EE15C02E2E16AE552E16E4850F3CF00
:10416000DEFFF4CFDDFF1BD0E66AFA0EDBCFE6FF01
:10417000FB0EDBCFE6FFFC0EDBCFE6FFFD0EDBCF59
:10418000E6FFDBEC12F0486E050EE15C02E2E16A4C
:10419000E552E16E4850F3CFDEFFF4CFDDFFD9CF1B
:1041A000E9FFDACFEAFFEE50ED1006E1020EF36E02
:1041B000050EF3CFDBFFC4D1DECFE9FFDDCFEAFF91
:1041C000030EEFCFDBFF030EDB50E50806E1010E27
:1041D000F36E050EF3CFDBFFB3D1030EDB5006E128
:1041E000020EF36E050EF3CFDBFFAAD1DECFE9FF9F
:1041F000DDCFEAFF0B0EE926000EEA22030EEFCF19
:10420000DBFF020EDB6A080EF36E020EDBCFF4FF5B
:10421000F350F45C3DE2DECFE9FFDDCFEAFFE9CF0A
:1042200048F0EACF49F0020EDB500F014824E96E56
:10423000000E4920EA6E040EEFCFDBFF040EDBCF49
:10424000E6FFE66A41ECCBF0E552E552040EF3CF0F
:10425000DBFFFC0EDBCFE9FFFD0EDBCFEAFF1B0E21
:10426000E926000EEA22E9CF48F0EACF49F0060E2F
:10427000DBCFF3FFDB2AF3500F014824E96E000E79
:104280004920EA6E040EDBCFEFFF020EDB2ABBD71C
:10429000DECFE9FFDDCFEAFF0B0EE926000EEA22B2
:1042A000030EEFCFDBFFDECFE9FFDDCFEAFF080E25
:1042B000E926000EEA22040EEFCFDBFF020EDB6AD6
:1042C000030EF36E020EDBCFF4FFF350F45C41E219
:1042D000DECFE9FFDDCFEAFF080EE926000EEA2275
:1042E000E9CF48F0EACF49F0020EDB500F01482435
:1042F000E96E000E4920EA6E040EEFCFDBFF040EDC
:10430000DBCFE6FFE66A41ECCBF0E552E552040E66
:10431000F3CFDBFFFC0EDBCFE9FFFD0EDBCFEAFFC7
:104320001B0EE926000EEA22E9CF48F0EACF49F059
:10433000060EDBCFF3FFDB2AF3500F014824E96EB2
:10434000000E4920EA6E040EDBCFEFFF020EDB2ADF
:10435000B7D7FA0EDBCFE9FFFB0EDBCFEAFFEECFDC
:1043600048F0EFCF49F0FC0EDBCFE9FFFD0EDBCFCD
:10437000EAFF260EE926000EEA2248C0EEFF49C0F9
:10438000EDFFDECFE9FFDDCFEAFF030EEFCFDBFF6E
:10439000030EDB50E50806E1010EF36E050EF3CFC8
:1043A000DBFF02D0050EDB6ADECFE9FFDDCFEAFFDF
:1043B0001C0EE926000EEA22EECF48F0EECF49F0BF
:1043C000EECF4AF0EFCF4BF0FC0EDBCFE9FFFD0E56
:1043D000DBCFEAFF120EE926000EEA2248C0EEFF0C
:1043E00049C0EEFF4AC0EEFF4BC0EEFFDECFE6FF56
:1043F000DDCFE6FF6FEC0FF0E552E5523AC048F032
:104400003BC049F03CC04AF03DC04BF0FC0EDBCF56
:10441000E9FFFD0EDBCFEAFF020EE926000EEA22DD
:1044200048C0EEFF49C0EEFF4AC0EEFF4BC0EEFFB2
:10443000DECFE9FFDDCFEAFF0B0EE926000EEA2210
:10444000030EEFCFDBFF030EDB50E66EFC0EDBCF7F
:10445000E9FFFD0EDBCFEAFF2A0EE926000EEA2275
:10446000E552E750EE6EED6A030EDBA835D0DECFE5
:10447000E9FFDDCFEAFF0E0EE926000EEA22EECFBD
:1044800048F0EFCF49F0FC0EDBCFE9FFFD0EDBCFAC
:10449000EAFF170EE926000EEA2248C0EEFF49C0E7
:1044A000EDFFDECFE9FFDDCFEAFF100EE926000EBB
:1044B000EA22EECF48F0EFCF49F0FC0EDBCFE9FF68
:1044C000FD0EDBCFEAFF190EE926000EEA2248C0F6
:1044D000EEFF49C0EDFF34D0DECFE9FFDDCFEAFFCC
:1044E000160EE926000EEA22EECF48F0EFCF49F093
:1044F000FC0EDBCFE9FFFD0EDBCFEAFF170EE9264E
:10450000000EEA2248C0EEFF49C0EDFFDECFE9FF12
:10451000DDCFEAFF180EE926000EEA22EECF48F0C2
:10452000EFCF49F0FC0EDBCFE9FFFD0EDBCFEAFF5A
:10453000190EE926000EEA2248C0EEFF49C0EDFF41
:10454000050EDB5000D0486E070EE15C02E2E16A26
:10455000E552E16E4850E552E5CFDAFFE7CFD9FFEB
:104560001200D9CFE6FFDACFE6FFE1CFD9FFE2CFE5
:10457000DAFFE652E652E652FC0EDBCFE9FFFD0E13
:10458000DBCFEAFF2C0EE926000EEA22EECF48F040
:10459000EECF49F0EECF4AF0EFCF4BF0FC0EDBCF81
:1045A000E9FFFD0EDBCFEAFF300EE926000EEA221E
:1045B00048C0EEFF49C0EEFF4AC0EEFF4BC0EEFF21
:1045C000010EE66EFA0EDBCFE6FFFB0EDBCFE6FF59
:1045D000FC0EDBCFE6FFFD0EDBCFE6FFDBEC12F0DF
:1045E000486E050EE15C02E2E16AE552E16E485078
:1045F000F3CFDEFFF4CFDDFFD9CFE9FFDACFEAFF5B
:10460000EE50ED1003E1F36AF46A6CD0DECFE9FFFF
:10461000DDCFEAFF020EEFCFDBFF020EDB5002E13F
:10462000DE6ADD6AD9CFE9FFDACFEAFFEE50ED109E
:1046300050E0020EDB50E50803E1DE6ADD6A49D096
:10464000DECFE9FFDDCFEAFF0B0EE926000EEA22FE
:10465000020EEFCFDBFF020EDB500F083AE1FA0E3D
:10466000DBCFE9FFFB0EDBCFEAFFEE2A000EEF22E5
:10467000E66AFA0EDBCFE6FFFB0EDBCFE6FFFC0EB1
:10468000DBCFE6FFFD0EDBCFE6FFDBEC12F0486E82
:10469000050EE15C02E2E16AE552E16E4850F3CFBB
:1046A000DEFFF4CFDDFFD9CFE9FFDACFEAFFEE502E
:1046B000ED1003E1F36AF46A15D0DECFE9FFDDCF38
:1046C000EAFF0B0EE926000EEA22020EEFCFDBFF17
:1046D000C2D7DECF48F0DDCF49F048C0F3FF49C074
:1046E000F4FF00D0E552E552E552E552E5CFDAFF9E
:1046F000E7CFD9FF1200D9CFE6FFDACFE6FFE1CF4F
:10470000D9FFE2CFDAFF0C0EE12402E3E168E652C2
:10471000E16E030EDB6A040EDB6A050EDB6A060E31
:10472000DB6A070EDB6A010EF36E0B0EF3CFDBFFC5
:10473000FC0EDBCFE9FFFD0EDBCFEAFF080EEECF6C
:10474000DBFF090EEDCFDBFF010EF36E0A0EF3CF98
:10475000DBFF0301010E0F6F0A0EDBCFF3FFDB0659
:10476000F350000901E1B6D0FC0EDBCFE9FFFD0EEE
:10477000DBCFEAFF2C0EE926000EEA22EECF48F04E
:10478000EECF49F0EECF4AF0EFCF4BF0FC0EDBCF8F
:10479000E9FFFD0EDBCFEAFF300EE926000EEA222C
:1047A00048C0EEFF49C0EEFF4AC0EEFF4BC0EEFF2F
:1047B000010EE66EFA0EDBCFE6FFFB0EDBCFE6FF67
:1047C000FC0EDBCFE6FFFD0EDBCFE6FFDBEC12F0ED
:1047D000486E050EE15C02E2E16AE552E16E485086
:1047E000F3CFDEFFF4CFDDFFD9CFE9FFDACFEAFF69
:1047F000EE50ED1002E11B0EB7D0DECFE9FFDDCFAA
:10480000EAFF020EEFCFDBFFD9CFE9FFDACFEAFFF5
:10481000EE50ED1007E0020EDB5004E0020EDB501C
:10482000E50807E10B0EF36E030EF3CFDBFF52D06A
:1048300020D0DECFE9FFDDCFEAFFE50EEF6EFA0E06
:10484000DBCFE6FFFB0EDBCFE6FFFC0EDBCFE6FFA8
:10485000FD0EDBCFE6FFEBEC0FF0E552E552E55243
:10486000E552000906E1010EF36E030EF3CFDBFF04
:1048700031D00B0EDB5016E0DECFE6FFDDCFE6FFDA
:104880006FEC0FF0E552E552040E3AC0DBFF050E67
:104890003BC0DBFF060E3CC0DBFF070E3DC0DBFF6D
:1048A0000B0EDB6AFA0EDBCFE9FFFB0EDBCFEAFF74
:1048B000EECF48F0EFCF49F04806000E495AFA0E05
:1048C000DBCFE9FFFB0EDBCFEAFF48C0EEFF49C0BC
:1048D000EDFF42D7030EDB5044E1D950040FE96EDF
:1048E000000EDA20EA6EEE5003010B190CE1EE50D7
:1048F00003010C1908E1EE5003010D1904E1EE501B
:1049000003010E1900E12AE0F90EDB5027E0080E42
:10491000DBCFE6FF090EDBCFE6FFD950040FE96ECF
:10492000000EDA20EA6EEECFE6FFEECFE6FFEECF26
:10493000E6FFEFCFE6FF15EC11F0486E060EE15CE6
:1049400002E2E16AE552E16E4850000902E0000E21
:1049500001D0010EE76E030EE7CFDBFF030EDBCFC6
:104960000FF3030EDB5000D0486E0C0EE15C02E248
:10497000E16AE552E16E4850E552E5CFDAFFE7CF54
:10498000D9FF1200D9CFE6FFDACFE6FFE1CFD9FF9A
:10499000E2CFDAFF6D0EE12402E3E168E652E16E58
:1049A00003010F6B34ECA0F0000906E00301180EC0
:1049B0000F6FF368F4685FD1FA0EDBCFE6FFFB0EF2
:1049C000DBCFE6FFD950020FE66E000EDA20E66E6E
:1049D0005DEC2CF0E552E552E552E552E66AD9501D
:1049E000020FE66E000EDA20E66EFC0EDBCFE6FF6D
:1049F000FD0EDBCFE6FFCEEC38F0486E050EE15C35
:104A000002E2E16AE552E16E4850000906E1030165
:104A1000120E0F6FF368F4682ED1280EDB6A290E90
:104A2000DB6A30CEE9FF31CEEAFF2C0EE926000E1C
:104A3000EA222E0EEECFDBFF2F0EEECFDBFF300E85
:104A4000EECFDBFF310EEECFDBFF30CEE9FF31CE14
:104A5000EAFF300EE926000EEA22320EEECFDBFF2F
:104A6000330EEECFDBFF340EEECFDBFF350EEECF95
:104A7000DBFFD950020FE66E000EDA20E66ED95049
:104A8000360FE66E000EDA20E66E5DEC2CF0E55295
:104A9000E552E552E552E66A010EE66ED950020F84
:104AA000E66E000EDA20E66ED950360FE66E000E86
:104AB000DA20E66EEFEC00F0486E060EE15C02E2F2
:104AC000E16AE552E16E48500B0801E0CBD0FA0EE6
:104AD000DBCFE9FFFB0EDBCFEAFF260EE926000E57
:104AE000EA22EECFDEFFEDCFDDFFD9CFE6FFDACF52
:104AF000E6FFFA0EDBCFE6FFFB0EDBCFE6FF31DD94
:104B0000E552E552E552E5526A0EF3CFDBFF6B0E3C
:104B1000F4CFDBFF6C0EDB6A0B0EF36E6C0EDBCF9B
:104B2000F4FFF350F45C01E384D0D9501D0F4A6EBA
:104B3000000EDA204B6E6C0EDB500F014A24E96E3A
:104B4000000E4B20EA6EEF50E66EFA0EDBCFE9FF67
:104B5000FB0EDBCFEAFF1B0EE926000EEA22E9CFAF
:104B600048F0EACF49F06C0EDB500F014824E96EA3
:104B7000000E4920EA6EE552E750EF6E080EF36E24
:104B80006C0EDBCFF4FFF350F45C26E2D9501D0F1E
:104B90004A6E000EDA204B6E6C0EDB500F014A2479
:104BA000E96E000E4B20EA6EEF50E66E6A0EDBCF28
:104BB000E9FF6B0EDBCFEAFFE9CF48F0EACF49F01F
:104BC0006C0EDB500F014824E96E000E4920EA6E9E
:104BD000E552E750EF6E2AD0D9501D0F4A6E000EF5
:104BE000DA204B6E6C0EDB500F014A24E96E000E8A
:104BF0004B20EA6EEF50E66E6A0EDBCFE9FF6B0EDC
:104C0000DBCFEAFF080EE926000EEA22E9CF48F0E2
:104C1000EACF49F06C0EDB50F80F0F014824E96E23
:104C2000000E4920EA6EE552E750EF6E6C0EDB2A6B
:104C300073D7D9CFE6FFDACFE6FFFA0EDBCFE6FF78
:104C4000FB0EDBCFE6FFEBEC0FF0E552E552E55251
:104C5000E552000906E10301090E0F6FF368F468DD
:104C60000AD006D00301110E0F6FF368F46803D069
:104C7000F36AF46A00D06D0EE15C02E2E16AE5528B
:104C8000E16EE552E5CFDAFFE7CFD9FF1200D9CFC9
:104C9000E6FFDACFE6FFE1CFD9FFE2CFDAFF060E7B
:104CA000E12402E3E168E652E16EFA0EDBCFE9FFB0
:104CB000FB0EDBCFEAFF020EEFCFDBFF34ECA0F000
:104CC00000090FE0020EDB5072080BE0020EDB5011
:104CD000520807E00301180E0F6FF36AF46AA2EF9F
:104CE0002AF0340EE66E0EECBFF0E552F3CFDEFF95
:104CF000F4CFDDFFE66ADECFE6FFDDCFE6FFFC0E98
:104D0000DBCFE6FFFD0EDBCFE6FFCEEC38F0486EE2
:104D1000050EE15C02E2E16AE552E16E48500009ED
:104D20000FE1DECFE6FFDDCFE6FF4FECC0F0E5524E
:104D3000E5520301120E0F6FF36AF46AA2EF2AF034
:104D4000DECFE9FFDDCFEAFFB10EEE6E030EED6EB2
:104D5000DECFE9FFDDCFEAFF020EE926000EEA22F0
:104D6000EE6AEE6AEE6AEE6ADECFE9FFDDCFEAFFB9
:104D7000060EE926000EEA22EE6AEE6AEE6AEE6A96
:104D8000DECFE9FFDDCFEAFF260EEB6A270EEB6AE6
:104D9000DECFE9FFDDCFEAFF2A0EE926000EEA2288
:104DA000200EEE6EED6A30CEE9FF31CEEAFF2C0E1A
:104DB000E926000EEA22EECF48F0EECF49F0EECF22
:104DC0004AF0EFCF4BF0DECFE9FFDDCFEAFF2C0E4C
:104DD000E926000EEA2248C0EEFF49C0EEFF4AC0B5
:104DE000EEFF4BC0EEFF30CEE9FF31CEEAFF300ED2
:104DF000E926000EEA22EECF48F0EECF49F0EECFE2
:104E00004AF0EFCF4BF0DECFE9FFDDCFEAFF300E07
:104E1000E926000EEA2248C0EEFF49C0EEFF4AC074
:104E2000EEFF4BC0EEFFDECFE6FFDDCFE6FF490E23
:104E3000E66E030EE66E5DEC2CF0E552E552E552AF
:104E4000E552E66A010EE66E490EE66E030EE66E68
:104E5000DECFE6FFDDCFE6FFEFEC00F0486E060E9A
:104E6000E15C02E2E16AE552E16E4850000901E0CE
:104E700093D2020EDB50520A01E116D2200A01E160
:104E800013D2330A01E1B3D0200A01E1B0D0160AEF
:104E900003E0200A01E079D2DECFE9FFDDCFEAFFAF
:104EA000260EE926000EEA22030EEECFDBFF040EEB
:104EB000EDCFDBFF010EE66ED950030FE66E000E5C
:104EC000DA20E66EDECFE6FFDDCFE6FF14DC486ECB
:104ED000050EE15C02E2E16AE552E16E4850E76EE0
:104EE000050EE7CFDBFF050EDB5001E07FD0010EA2
:104EF000E66EE66AD950030FE66E000EDA20E66E23
:104F0000DECFE6FFDDCFE6FF06EC16F0486E060EBC
:104F1000E15C02E2E16AE552E16E4850E76E050E9F
:104F2000E7CFDBFF050EDB5061E1770EE66ED9506F
:104F3000030FE66E000EDA20E66EDECFE6FFDDCF71
:104F4000E6FFB5EC03F0486E050EE15C02E2E16AB3
:104F5000E552E16E4850E76E050EE7CFDBFFDECF8E
:104F6000E9FFDDCFEAFF2A0EE926000EEA22EECFA6
:104F700048F0EFCF49F04850100B05E003011F0E39
:104F80000F6F050EDB68050EDB5030E1020EE66E9A
:104F9000E66AE66AE66AE66AE66ADECFE6FFDDCF43
:104FA000E6FF89EC3EF0486E080EE15C02E2E16A41
:104FB000E552E16E4850050EF3CFDBFF010EE76EC0
:104FC000FA0EDBCFE9FFFB0EDBCFEAFFE750E92665
:104FD000000EEA22EF502B0809E1DECFE9FFDDCF1A
:104FE000EAFF160EE926000EEA22EF82D4D1DECFC8
:104FF000E9FFDDCFEAFF120EE926000EEA22EECF2E
:1050000048F0EECF49F0EECF4AF0EFCF4BF04850EA
:1050100049104A104B1001E195D0DECFE9FFDDCFFA
:10502000EAFF260EE926000EEA22030EEECFDBFF92
:10503000040EEDCFDBFF770EE66ED950030FE66E60
:10504000000EDA20E66EDECFE6FFDDCFE6FFB5EC40
:1050500003F0486E050EE15C02E2E16AE552E16EA2
:105060004850E76E050EE7CFDBFFDECFE9FFDDCF6F
:10507000EAFF2A0EE926000EEA22EECF48F0EFCF33
:1050800049F04850100B05E003011F0E0F6F050E8D
:10509000DB68050EDB5055E1020EE66EE66AE66A55
:1050A000E66AE66AE66ADECFE6FFDDCFE6FF89EC78
:1050B0003EF0486E080EE15C02E2E16AE552E16E04
:1050C0004850050EF3CFDBFF050EDB5004E0030173
:1050D0001A0E0F6F1ED0DECFE9FFDDCFEAFF060EFE
:1050E000E926000EEA22EECFE6FFEECFE6FFEECF96
:1050F000E6FFEFCFE6FFB10EE66E030EE66E57EC6D
:1051000044F0486E060EE15C02E2E16AE552E16EAF
:105110004850010EE76EFA0EDBCFE9FFFB0EDBCF46
:10512000EAFFE750E926000EEA22EF502B0809E1DA
:10513000DECFE9FFDDCFEAFF160EE926000EEA22F8
:10514000EF82B1D0DECFE9FFDDCFEAFF260EE92600
:10515000000EEA22030EEECFDBFF040EEDCFDBFFE5
:10516000010EE66ED950030FE66E000EDA20E66EF1
:10517000DECFE6FFDDCFE6FF7BEC23F0486E050EC9
:10518000E15C02E2E16AE552E16E4850E76E050E2D
:10519000E7CFDBFF050EDB5001E085D0010EE66EA8
:1051A000E66AD950030FE66E000EDA20E66EDECF17
:1051B000E6FFDDCFE6FF06EC16F0486E060EE15C7A
:1051C00002E2E16AE552E16E4850E76E050EE7CF74
:1051D000DBFF050EDB5067E1770EE66ED950030F5B
:1051E000E66E000EDA20E66EDECFE6FFDDCFE6FFEC
:1051F000B5EC03F0486E050EE15C02E2E16AE552AF
:10520000E16E4850E76E050EE7CFDBFFDECFE9FF2A
:10521000DDCFEAFF2A0EE926000EEA22EECF48F0A3
:10522000EFCF49F04850100B05E003011F0E0F6F40
:10523000050EDB68050EDB5036E1020EE66EE66A0F
:10524000E66AE66AE66AE66ADECFE6FFDDCFE6FFFB
:1052500089EC3EF0486E080EE15C02E2E16AE5523C
:10526000E16E4850050EF3CFDBFF050EDB5003E087
:1052700003011A0E0F6F010EE76EFA0EDBCFE9FF86
:10528000FB0EDBCFEAFFE750E926000EEA22EF50E3
:105290002B0809E1DECFE9FFDDCFEAFF160EE92694
:1052A000000EEA22EF8277D0DECFE9FFDDCFEAFF02
:1052B000260EE926000EEA22030EEECFDBFF040ED7
:1052C000EDCFDBFF720EE66ED950030FE66E000ED7
:1052D000DA20E66EDECFE6FFDDCFE6FFB5EC03F0C9
:1052E000486E050EE15C02E2E16AE552E16E48506B
:1052F000E76E050EE7CFDBFF050EDB5045E1010E43
:10530000E76EFA0EDBCFE9FFFB0EDBCFEAFFE750DB
:10531000E926000EEA22EF502B0836E1DECFE9FF46
:10532000DDCFEAFF060EE926000EEA22EECFE6FF09
:10533000EECFE6FFEECFE6FFEFCFE6FFB10EE66E73
:10534000030EE66E57EC44F0486E060EE15C02E296
:10535000E16AE552E16E4850DECFE9FFDDCFEAFFBA
:105360002A0EE926000EEA22EECF48F0EFCF49F0F0
:105370004850100B09E1DECFE9FFDDCFEAFF160E42
:10538000E926000EEA22EF8006D003011F0E0F6F00
:10539000050EDB6800D0B0D0490EE66E030EE66E57
:1053A000DECFE6FFDDCFE6FF88DAE552E552E552D3
:1053B000E552020EDB5077080DE0020EDB50570875
:1053C00009E0020EDB50610805E0020EDB504108E7
:1053D00001E08AD0030EDB6A040EDB6A010EE66E82
:1053E000E66AD950030FE66E000EDA20E66EDECFD5
:1053F000E6FFDDCFE6FF06EC16F0486E060EE15C38
:1054000002E2E16AE552E16E4850E76E050EE7CF31
:10541000DBFF050EDB5067E1770EE66ED950030F18
:10542000E66E000EDA20E66EDECFE6FFDDCFE6FFA9
:10543000B5EC03F0486E050EE15C02E2E16AE5526C
:10544000E16E4850E76E050EE7CFDBFFDECFE9FFE8
:10545000DDCFEAFF2A0EE926000EEA22EECF48F061
:10546000EFCF49F04850100B05E003011F0E0F6FFE
:10547000050EDB68050EDB5036E1020EE66EE66ACD
:10548000E66AE66AE66AE66ADECFE6FFDDCFE6FFB9
:1054900089EC3EF0486E080EE15C02E2E16AE552FA
:1054A000E16E4850050EF3CFDBFF050EDB5003E045
:1054B00003011A0E0F6F010EE76EFA0EDBCFE9FF44
:1054C000FB0EDBCFEAFFE750E926000EEA22EF50A1
:1054D0002B0809E1DECFE9FFDDCFEAFF160EE92652
:1054E000000EEA22EF8208D00B0EF36E050EF3CF0A
:1054F000DBFF03010B0E0F6F34ECA0F0000909E095
:10550000DECFE9FFDDCFEAFF160EE926000EEA2224
:10551000EF90050EDB500BE0DECFE6FFDDCFE6FFC0
:105520004FECC0F0E552E552DE6ADD6A02D00301BD
:105530000F6BDECF48F0DDCF49F048C0F3FF49C024
:10554000F4FF00D0060EE15C02E2E16AE552E16E92
:10555000E552E5CFDAFFE7CFD9FF1200D9CFE6FF5A
:10556000DACFE6FFE1CFD9FFE2CFDAFF03010F6B1D
:10557000FC0EDBCFE9FFFD0EDBCFEAFF0E0EE926C6
:10558000000EEA22EECF48F0EECF49F0EECF4AF01F
:10559000EFCF4BF048C03AF049C03BF04AC03CF076
:1055A0004BC03DF000D0E552E5CFDAFFE7CFD9FFA1
:1055B0001200D9CFE6FFDACFE6FFE1CFD9FFE2CF85
:1055C000DAFFE652E652150EDE6E030EDD6E0301C3
:1055D0000F6B34ECA0F0000906E00301180E0F6F0A
:1055E000F368F468FBD0E66ADECFE6FFDDCFE6FFC6
:1055F000FC0EDBCFE6FFFD0EDBCFE6FFCEEC38F096
:10560000486E050EE15C02E2E16AE552E16E485047
:10561000000906E10301120E0F6FF368F468DED093
:10562000DECFE9FFDDCFEAFFB10EEE6E030EED6EC9
:10563000DECFE9FFDDCFEAFF020EE926000EEA2207
:10564000EE6AEE6AEE6AEE6ADECFE9FFDDCFEAFFD0
:10565000060EE926000EEA22EE6AEE6AEE6AEE6AAD
:10566000DECFE9FFDDCFEAFF260EEB6A270EEB6AFD
:10567000DECFE9FFDDCFEAFF2A0EE926000EEA229F
:10568000200EEE6EED6A30CEE9FF31CEEAFF2C0E31
:10569000E926000EEA22EECF48F0EECF49F0EECF39
:1056A0004AF0EFCF4BF0DECFE9FFDDCFEAFF2C0E63
:1056B000E926000EEA2248C0EEFF49C0EEFF4AC0CC
:1056C000EEFF4BC0EEFF30CEE9FF31CEEAFF300EE9
:1056D000E926000EEA22EECF48F0EECF49F0EECFF9
:1056E0004AF0EFCF4BF0DECFE9FFDDCFEAFF300E1F
:1056F000E926000EEA2248C0EEFF49C0EEFF4AC08C
:10570000EEFF4BC0EEFFDECFE6FFDDCFE6FF490E3A
:10571000E66E030EE66ED1D8E552E552E552E5524B
:10572000E66A010EE66E490EE66E030EE66EDECF09
:10573000E6FFDDCFE6FFEFEC00F0486E060EE15C21
:1057400002E2E16AE552E16E4850000906E0030119
:105750000B0E0F6FF368F46841D0DECFE9FFDDCFA9
:10576000EAFF2A0EE926000EEA22EECF48F0EFCF3C
:1057700049F04850100B06E00301130E0F6FF36859
:10578000F4682CD0010EE66EDECFE9FFDDCFEAFF34
:10579000260EE926000EEA22E9CF48F0EACF49F0CA
:1057A00048C0E6FF49C0E6FFDECFE6FFDDCFE6FFFB
:1057B0007BEC23F04A6E050EE15C02E2E16AE55201
:1057C000E16E4A50000904E1F36AF46A07D006D09A
:1057D0000301010E0F6FF368F46800D0E552E55243
:1057E000E552E5CFDAFFE7CFD9FF1200D9CFE6FFC8
:1057F000DACFE6FFE1CFD9FFE2CFDAFF0E012C517D
:1058000002E0D0EC34F0FC0EDBCFE9FFFD0EDBCF85
:10581000EAFF0E0EE926000EEA22EE6AEE6AEE6A52
:10582000EE6AFC0EDBCFE9FFFD0EDBCFEAFF0C0ECC
:10583000EB6A0D0EEB6AFC0EDBCFE9FFFD0EDBCF52
:10584000EAFF0A0EEB6A0B0EEB6AFC0EDBCFE9FFF8
:10585000FD0EDBCFEAFF020EE926000EEA22EECFB4
:1058600048F0EECF49F0EECF4AF0EFCF4BF0FC0E10
:10587000DBCFE9FFFD0EDBCFEAFF060EE926000EC7
:10588000EA2248C0EEFF49C0EEFF4AC0EEFF4BC01F
:10589000EEFF0E01266B276B00D0E552E5CFDAFF55
:1058A000E7CFD9FF120003010F51486E496A48C083
:1058B000F3FF49C0F4FF00D01200D9CFE6FFDACFE2
:1058C000E6FFE1CFD9FFE2CFDAFF080EE12402E3E1
:1058D000E168E652E16EFC0EDBCF3CF0FD0EDBCF63
:1058E0003DF0020E3CC0DBFF030E3DC0DBFFFA0EB5
:1058F000DBCF3CF0FB0EDBCF3DF0040E3CC0DBFF0A
:10590000050E3DC0DBFF340EDE6EDD6A060EDB6A7F
:10591000070EDB6A060EDBCF48F0070EDBCF49F03F
:10592000DECF4AF0DDCF4BF049504B18E8AE02D045
:105930004B3404D04A50485C4B50495827E2060E7D
:10594000DBCF4AF0070EDBCF4BF0040EDB504A24CE
:10595000E96E050EDB504B20EA6EEF50E66E060E48
:10596000DBCF48F0070EDBCF49F0020EDB504824B6
:10597000E96E030EDB504920EA6EE552E750EF6E08
:10598000060EDB2A070E01E3DB2AC4D7080EE15C12
:1059900002E2E16AE552E16EE552E5CFDAFFE7CFD8
:1059A000D9FF1200D9CFE6FFDACFE6FFE1CFD9FF6A
:1059B000E2CFDAFFE652E652E652020EDB6AFC0E56
:1059C000DBCFE9FFFD0EDBCFEAFFEECFDEFFEDCF51
:1059D000DDFFFC0EDBCFE6FFFD0EDBCFE6FFCAEC02
:1059E0001CF0E552E5523AC048F03BC049F03CC0DB
:1059F0004AF03DC04BF0FA0EDBCFE9FFFB0EDBCFE8
:105A0000EAFF48C0EEFF49C0EEFF4AC0EEFF4BC0C0
:105A1000EEFFFA0EDBCFE9FFFB0EDBCFEAFFEECFA6
:105A200048F0EECF49F0EECF4AF0EFCF4BF04850C0
:105A300049104A104B1006E1150EF36E020EF3CF1B
:105A4000DBFFD0D0DECFE9FFDDCFEAFF220EE92673
:105A5000000EEA22EF0433E1E66AF80EE66E0F0E5E
:105A6000E66EE66AE66AFA0EDBCFE9FFFB0EDBCFF5
:105A7000EAFFEECFE6FFEECFE6FFEECFE6FFEFCF99
:105A8000E6FFDECFE6FFDDCFE6FF93EC49F0486EA0
:105A90000B0EE15C02E2E16AE552E16E4850E86813
:105AA0003A1806E1E8683B1803E13C5001E13D503B
:105AB00005E1090EF36E020EF3CFDBFF71D0DECFEE
